{
  "_format": "hh-sol-artifact-1",
  "contractName": "AddressCollectionV1",
  "sourceName": "contracts/AddressCollectionV1.sol",
  "abi": [
    {
      "inputs": [
        {
          "internalType": "uint256",
          "name": "_royaltyFee",
          "type": "uint256"
        },
        {
          "internalType": "address",
          "name": "_royaltyRecipient",
          "type": "address"
        },
        {
          "internalType": "address",
          "name": "initialOwner",
          "type": "address"
        }
      ],
      "stateMutability": "nonpayable",
      "type": "constructor"
    },
    {
      "inputs": [
        {
          "internalType": "address",
          "name": "owner",
          "type": "address"
        }
      ],
      "name": "OwnableInvalidOwner",
      "type": "error"
    },
    {
      "inputs": [
        {
          "internalType": "address",
          "name": "account",
          "type": "address"
        }
      ],
      "name": "OwnableUnauthorizedAccount",
      "type": "error"
    },
    {
      "anonymous": false,
      "inputs": [
        {
          "indexed": true,
          "internalType": "address",
          "name": "previousOwner",
          "type": "address"
        },
        {
          "indexed": true,
          "internalType": "address",
          "name": "newOwner",
          "type": "address"
        }
      ],
      "name": "OwnershipTransferred",
      "type": "event"
    },
    {
      "anonymous": false,
      "inputs": [
        {
          "indexed": true,
          "internalType": "address",
          "name": "tokenAddress",
          "type": "address"
        },
        {
          "indexed": true,
          "internalType": "address",
          "name": "owner",
          "type": "address"
        }
      ],
      "name": "TokenCreated",
      "type": "event"
    },
    {
      "inputs": [
        {
          "internalType": "uint256",
          "name": "",
          "type": "uint256"
        }
      ],
      "name": "allTokens",
      "outputs": [
        {
          "internalType": "address",
          "name": "",
          "type": "address"
        }
      ],
      "stateMutability": "view",
      "type": "function"
    },
    {
      "inputs": [
        {
          "internalType": "uint256",
          "name": "index",
          "type": "uint256"
        }
      ],
      "name": "getNftAddress",
      "outputs": [
        {
          "internalType": "address",
          "name": "",
          "type": "address"
        }
      ],
      "stateMutability": "view",
      "type": "function"
    },
    {
      "inputs": [
        {
          "internalType": "uint256",
          "name": "contractId",
          "type": "uint256"
        },
        {
          "internalType": "address",
          "name": "collectionAddress",
          "type": "address"
        },
        {
          "internalType": "address",
          "name": "nftOwner",
          "type": "address"
        },
        {
          "internalType": "string",
          "name": "metadata_url",
          "type": "string"
        },
        {
          "internalType": "uint256",
          "name": "commission",
          "type": "uint256"
        },
        {
          "internalType": "address",
          "name": "commissionWallet",
          "type": "address"
        }
      ],
      "name": "mintNFT",
      "outputs": [
        {
          "internalType": "address",
          "name": "",
          "type": "address"
        }
      ],
      "stateMutability": "nonpayable",
      "type": "function"
    },
    {
      "inputs": [],
      "name": "owner",
      "outputs": [
        {
          "internalType": "address",
          "name": "",
          "type": "address"
        }
      ],
      "stateMutability": "view",
      "type": "function"
    },
    {
      "inputs": [],
      "name": "renounceOwnership",
      "outputs": [],
      "stateMutability": "nonpayable",
      "type": "function"
    },
    {
      "inputs": [],
      "name": "royaltyFee",
      "outputs": [
        {
          "internalType": "uint256",
          "name": "",
          "type": "uint256"
        }
      ],
      "stateMutability": "view",
      "type": "function"
    },
    {
      "inputs": [
        {
          "internalType": "uint256",
          "name": "",
          "type": "uint256"
        },
        {
          "internalType": "uint256",
          "name": "salePrice",
          "type": "uint256"
        }
      ],
      "name": "royaltyInfo",
      "outputs": [
        {
          "internalType": "address",
          "name": "receiver",
          "type": "address"
        },
        {
          "internalType": "uint256",
          "name": "royaltyAmount",
          "type": "uint256"
        }
      ],
      "stateMutability": "view",
      "type": "function"
    },
    {
      "inputs": [],
      "name": "royaltyRecipient",
      "outputs": [
        {
          "internalType": "address",
          "name": "",
          "type": "address"
        }
      ],
      "stateMutability": "view",
      "type": "function"
    },
    {
      "inputs": [
        {
          "internalType": "address",
          "name": "_recipient",
          "type": "address"
        },
        {
          "internalType": "uint256",
          "name": "_fee",
          "type": "uint256"
        }
      ],
      "name": "setRoyaltyInfo",
      "outputs": [],
      "stateMutability": "nonpayable",
      "type": "function"
    },
    {
      "inputs": [
        {
          "internalType": "bytes4",
          "name": "interfaceId",
          "type": "bytes4"
        }
      ],
      "name": "supportsInterface",
      "outputs": [
        {
          "internalType": "bool",
          "name": "",
          "type": "bool"
        }
      ],
      "stateMutability": "pure",
      "type": "function"
    },
    {
      "inputs": [
        {
          "internalType": "address",
          "name": "newOwner",
          "type": "address"
        }
      ],
      "name": "transferOwnership",
      "outputs": [],
      "stateMutability": "nonpayable",
      "type": "function"
    },
    {
      "inputs": [],
      "name": "withdraw",
      "outputs": [],
      "stateMutability": "nonpayable",
      "type": "function"
    }
  ],
  "bytecode": "0x60806040523480156200001157600080fd5b5060405162003d3138038062003d31833981810160405281019062000037919062000279565b80600073ffffffffffffffffffffffffffffffffffffffff168173ffffffffffffffffffffffffffffffffffffffff1603620000ad5760006040517f1e4fbdf7000000000000000000000000000000000000000000000000000000008152600401620000a49190620002e6565b60405180910390fd5b620000be816200011060201b60201c565b508260018190555081600260006101000a81548173ffffffffffffffffffffffffffffffffffffffff021916908373ffffffffffffffffffffffffffffffffffffffff16021790555050505062000303565b60008060009054906101000a900473ffffffffffffffffffffffffffffffffffffffff169050816000806101000a81548173ffffffffffffffffffffffffffffffffffffffff021916908373ffffffffffffffffffffffffffffffffffffffff1602179055508173ffffffffffffffffffffffffffffffffffffffff168173ffffffffffffffffffffffffffffffffffffffff167f8be0079c531659141344cd1fd0a4f28419497f9722a3daafe3b4186f6b6457e060405160405180910390a35050565b600080fd5b6000819050919050565b620001ee81620001d9565b8114620001fa57600080fd5b50565b6000815190506200020e81620001e3565b92915050565b600073ffffffffffffffffffffffffffffffffffffffff82169050919050565b6000620002418262000214565b9050919050565b620002538162000234565b81146200025f57600080fd5b50565b600081519050620002738162000248565b92915050565b600080600060608486031215620002955762000294620001d4565b5b6000620002a586828701620001fd565b9350506020620002b88682870162000262565b9250506040620002cb8682870162000262565b9150509250925092565b620002e08162000234565b82525050565b6000602082019050620002fd6000830184620002d5565b92915050565b613a1e80620003136000396000f3fe60806040523480156200001157600080fd5b5060043610620000c45760003560e01c8063715018a6116200007b578063715018a614620001d05780638da5cb5b14620001dc578063b8997a9714620001fe578063e2e784d51462000220578063e8072bd41462000240578063f2fde38b146200027657620000c4565b806301ffc9a714620000c95780632a55205a14620000ff578063327a08c914620001365780633ccfd60b146200016c5780634c00de821462000178578063634282af146200019a575b600080fd5b620000e76004803603810190620000e19190620009ea565b62000296565b604051620000f6919062000a39565b60405180910390f35b6200011d600480360381019062000117919062000a91565b62000369565b6040516200012d92919062000b2e565b60405180910390f35b6200015460048036038101906200014e919062000cee565b620003b9565b60405162000163919062000da9565b60405180910390f35b62000176620004d7565b005b62000182620005ec565b60405162000191919062000da9565b60405180910390f35b620001b86004803603810190620001b2919062000dc6565b62000612565b604051620001c7919062000da9565b60405180910390f35b620001da62000652565b005b620001e66200066a565b604051620001f5919062000da9565b60405180910390f35b6200020862000693565b60405162000217919062000df8565b60405180910390f35b6200023e600480360381019062000238919062000e15565b62000699565b005b6200025e600480360381019062000258919062000dc6565b62000737565b6040516200026d919062000da9565b60405180910390f35b6200029460048036038101906200028e919062000e5c565b62000782565b005b60007f2a55205a000000000000000000000000000000000000000000000000000000007bffffffffffffffffffffffffffffffffffffffffffffffffffffffff1916827bffffffffffffffffffffffffffffffffffffffffffffffffffffffff191614806200036257507f01ffc9a7000000000000000000000000000000000000000000000000000000007bffffffffffffffffffffffffffffffffffffffffffffffffffffffff1916827bffffffffffffffffffffffffffffffffffffffffffffffffffffffff1916145b9050919050565b600080600260009054906101000a900473ffffffffffffffffffffffffffffffffffffffff1661271060015485620003a2919062000ebd565b620003ae919062000f37565b915091509250929050565b6000620003c56200080f565b6000878787878787604051620003db906200096b565b620003ec9695949392919062000ff8565b604051809103906000f08015801562000409573d6000803e3d6000fd5b5090506003819080600181540180825580915050600190039060005260206000200160009091909190916101000a81548173ffffffffffffffffffffffffffffffffffffffff021916908373ffffffffffffffffffffffffffffffffffffffff1602179055503373ffffffffffffffffffffffffffffffffffffffff168173ffffffffffffffffffffffffffffffffffffffff167fd5f9bdf12adf29dab0248c349842c3822d53ae2bb4f36352f301630d018c813960405160405180910390a3809150509695505050505050565b620004e16200080f565b6000479050600081116200052c576040517f08c379a00000000000000000000000000000000000000000000000000000000081526004016200052390620010bc565b60405180910390fd5b6000620005386200066a565b73ffffffffffffffffffffffffffffffffffffffff16826040516200055d9062001113565b60006040518083038185875af1925050503d80600081146200059c576040519150601f19603f3d011682016040523d82523d6000602084013e620005a1565b606091505b5050905080620005e8576040517f08c379a0000000000000000000000000000000000000000000000000000000008152600401620005df906200117a565b60405180910390fd5b5050565b600260009054906101000a900473ffffffffffffffffffffffffffffffffffffffff1681565b600381815481106200062357600080fd5b906000526020600020016000915054906101000a900473ffffffffffffffffffffffffffffffffffffffff1681565b6200065c6200080f565b6200066860006200089f565b565b60008060009054906101000a900473ffffffffffffffffffffffffffffffffffffffff16905090565b60015481565b620006a36200080f565b612710811115620006eb576040517f08c379a0000000000000000000000000000000000000000000000000000000008152600401620006e290620011ec565b60405180910390fd5b81600260006101000a81548173ffffffffffffffffffffffffffffffffffffffff021916908373ffffffffffffffffffffffffffffffffffffffff160217905550806001819055505050565b60006003828154811062000750576200074f6200120e565b5b9060005260206000200160009054906101000a900473ffffffffffffffffffffffffffffffffffffffff169050919050565b6200078c6200080f565b600073ffffffffffffffffffffffffffffffffffffffff168173ffffffffffffffffffffffffffffffffffffffff1603620008015760006040517f1e4fbdf7000000000000000000000000000000000000000000000000000000008152600401620007f8919062000da9565b60405180910390fd5b6200080c816200089f565b50565b6200081962000963565b73ffffffffffffffffffffffffffffffffffffffff16620008396200066a565b73ffffffffffffffffffffffffffffffffffffffff16146200089d576200085f62000963565b6040517f118cdaa700000000000000000000000000000000000000000000000000000000815260040162000894919062000da9565b60405180910390fd5b565b60008060009054906101000a900473ffffffffffffffffffffffffffffffffffffffff169050816000806101000a81548173ffffffffffffffffffffffffffffffffffffffff021916908373ffffffffffffffffffffffffffffffffffffffff1602179055508173ffffffffffffffffffffffffffffffffffffffff168173ffffffffffffffffffffffffffffffffffffffff167f8be0079c531659141344cd1fd0a4f28419497f9722a3daafe3b4186f6b6457e060405160405180910390a35050565b600033905090565b6127ab806200123e83390190565b6000604051905090565b600080fd5b600080fd5b60007fffffffff0000000000000000000000000000000000000000000000000000000082169050919050565b620009c4816200098d565b8114620009d057600080fd5b50565b600081359050620009e481620009b9565b92915050565b60006020828403121562000a035762000a0262000983565b5b600062000a1384828501620009d3565b91505092915050565b60008115159050919050565b62000a338162000a1c565b82525050565b600060208201905062000a50600083018462000a28565b92915050565b6000819050919050565b62000a6b8162000a56565b811462000a7757600080fd5b50565b60008135905062000a8b8162000a60565b92915050565b6000806040838503121562000aab5762000aaa62000983565b5b600062000abb8582860162000a7a565b925050602062000ace8582860162000a7a565b9150509250929050565b600073ffffffffffffffffffffffffffffffffffffffff82169050919050565b600062000b058262000ad8565b9050919050565b62000b178162000af8565b82525050565b62000b288162000a56565b82525050565b600060408201905062000b45600083018562000b0c565b62000b54602083018462000b1d565b9392505050565b62000b668162000af8565b811462000b7257600080fd5b50565b60008135905062000b868162000b5b565b92915050565b600080fd5b600080fd5b6000601f19601f8301169050919050565b7f4e487b7100000000000000000000000000000000000000000000000000000000600052604160045260246000fd5b62000be18262000b96565b810181811067ffffffffffffffff8211171562000c035762000c0262000ba7565b5b80604052505050565b600062000c1862000979565b905062000c26828262000bd6565b919050565b600067ffffffffffffffff82111562000c495762000c4862000ba7565b5b62000c548262000b96565b9050602081019050919050565b82818337600083830152505050565b600062000c8762000c818462000c2b565b62000c0c565b90508281526020810184848401111562000ca65762000ca562000b91565b5b62000cb384828562000c61565b509392505050565b600082601f83011262000cd35762000cd262000b8c565b5b813562000ce584826020860162000c70565b91505092915050565b60008060008060008060c0878903121562000d0e5762000d0d62000983565b5b600062000d1e89828a0162000a7a565b965050602062000d3189828a0162000b75565b955050604062000d4489828a0162000b75565b945050606087013567ffffffffffffffff81111562000d685762000d6762000988565b5b62000d7689828a0162000cbb565b935050608062000d8989828a0162000a7a565b92505060a062000d9c89828a0162000b75565b9150509295509295509295565b600060208201905062000dc0600083018462000b0c565b92915050565b60006020828403121562000ddf5762000dde62000983565b5b600062000def8482850162000a7a565b91505092915050565b600060208201905062000e0f600083018462000b1d565b92915050565b6000806040838503121562000e2f5762000e2e62000983565b5b600062000e3f8582860162000b75565b925050602062000e528582860162000a7a565b9150509250929050565b60006020828403121562000e755762000e7462000983565b5b600062000e858482850162000b75565b91505092915050565b7f4e487b7100000000000000000000000000000000000000000000000000000000600052601160045260246000fd5b600062000eca8262000a56565b915062000ed78362000a56565b925082820262000ee78162000a56565b9150828204841483151762000f015762000f0062000e8e565b5b5092915050565b7f4e487b7100000000000000000000000000000000000000000000000000000000600052601260045260246000fd5b600062000f448262000a56565b915062000f518362000a56565b92508262000f645762000f6362000f08565b5b828204905092915050565b600081519050919050565b600082825260208201905092915050565b60005b8381101562000fab57808201518184015260208101905062000f8e565b60008484015250505050565b600062000fc48262000f6f565b62000fd0818562000f7a565b935062000fe281856020860162000f8b565b62000fed8162000b96565b840191505092915050565b600060c0820190506200100f600083018962000b1d565b6200101e602083018862000b0c565b6200102d604083018762000b0c565b818103606083015262001041818662000fb7565b905062001052608083018562000b1d565b6200106160a083018462000b0c565b979650505050505050565b7f4e6f2066756e647320617661696c61626c650000000000000000000000000000600082015250565b6000620010a460128362000f7a565b9150620010b1826200106c565b602082019050919050565b60006020820190508181036000830152620010d78162001095565b9050919050565b600081905092915050565b50565b6000620010fb600083620010de565b91506200110882620010e9565b600082019050919050565b60006200112082620010ec565b9150819050919050565b7f5769746864726177206661696c65640000000000000000000000000000000000600082015250565b600062001162600f8362000f7a565b91506200116f826200112a565b602082019050919050565b60006020820190508181036000830152620011958162001153565b9050919050565b7f526f79616c74792066656520746f6f2068696768000000000000000000000000600082015250565b6000620011d460148362000f7a565b9150620011e1826200119c565b602082019050919050565b600060208201905081810360008301526200120781620011c5565b9050919050565b7f4e487b7100000000000000000000000000000000000000000000000000000000600052603260045260246000fdfe60806040523480156200001157600080fd5b50604051620027ab380380620027ab833981810160405281019062000037919062000464565b83600073ffffffffffffffffffffffffffffffffffffffff168173ffffffffffffffffffffffffffffffffffffffff1603620000ad5760006040517f1e4fbdf7000000000000000000000000000000000000000000000000000000008152600401620000a4919062000530565b60405180910390fd5b620000be816200016d60201b60201c565b50856001819055508160028190555080600360006101000a81548173ffffffffffffffffffffffffffffffffffffffff021916908373ffffffffffffffffffffffffffffffffffffffff16021790555084600460006101000a81548173ffffffffffffffffffffffffffffffffffffffff021916908373ffffffffffffffffffffffffffffffffffffffff16021790555082600590816200016091906200078e565b5050505050505062000875565b60008060009054906101000a900473ffffffffffffffffffffffffffffffffffffffff169050816000806101000a81548173ffffffffffffffffffffffffffffffffffffffff021916908373ffffffffffffffffffffffffffffffffffffffff1602179055508173ffffffffffffffffffffffffffffffffffffffff168173ffffffffffffffffffffffffffffffffffffffff167f8be0079c531659141344cd1fd0a4f28419497f9722a3daafe3b4186f6b6457e060405160405180910390a35050565b6000604051905090565b600080fd5b600080fd5b6000819050919050565b6200025a8162000245565b81146200026657600080fd5b50565b6000815190506200027a816200024f565b92915050565b600073ffffffffffffffffffffffffffffffffffffffff82169050919050565b6000620002ad8262000280565b9050919050565b620002bf81620002a0565b8114620002cb57600080fd5b50565b600081519050620002df81620002b4565b92915050565b600080fd5b600080fd5b6000601f19601f8301169050919050565b7f4e487b7100000000000000000000000000000000000000000000000000000000600052604160045260246000fd5b6200033a82620002ef565b810181811067ffffffffffffffff821117156200035c576200035b62000300565b5b80604052505050565b60006200037162000231565b90506200037f82826200032f565b919050565b600067ffffffffffffffff821115620003a257620003a162000300565b5b620003ad82620002ef565b9050602081019050919050565b60005b83811015620003da578082015181840152602081019050620003bd565b60008484015250505050565b6000620003fd620003f78462000384565b62000365565b9050828152602081018484840111156200041c576200041b620002ea565b5b62000429848285620003ba565b509392505050565b600082601f830112620004495762000448620002e5565b5b81516200045b848260208601620003e6565b91505092915050565b60008060008060008060c087890312156200048457620004836200023b565b5b60006200049489828a0162000269565b9650506020620004a789828a01620002ce565b9550506040620004ba89828a01620002ce565b945050606087015167ffffffffffffffff811115620004de57620004dd62000240565b5b620004ec89828a0162000431565b9350506080620004ff89828a0162000269565b92505060a06200051289828a01620002ce565b9150509295509295509295565b6200052a81620002a0565b82525050565b60006020820190506200054760008301846200051f565b92915050565b600081519050919050565b7f4e487b7100000000000000000000000000000000000000000000000000000000600052602260045260246000fd5b60006002820490506001821680620005a057607f821691505b602082108103620005b657620005b562000558565b5b50919050565b60008190508160005260206000209050919050565b60006020601f8301049050919050565b600082821b905092915050565b600060088302620006207fffffffffffffffffffffffffffffffffffffffffffffffffffffffffffffffff82620005e1565b6200062c8683620005e1565b95508019841693508086168417925050509392505050565b6000819050919050565b60006200066f62000669620006638462000245565b62000644565b62000245565b9050919050565b6000819050919050565b6200068b836200064e565b620006a36200069a8262000676565b848454620005ee565b825550505050565b600090565b620006ba620006ab565b620006c781848462000680565b505050565b5b81811015620006ef57620006e3600082620006b0565b600181019050620006cd565b5050565b601f8211156200073e576200070881620005bc565b6200071384620005d1565b8101602085101562000723578190505b6200073b6200073285620005d1565b830182620006cc565b50505b505050565b600082821c905092915050565b6000620007636000198460080262000743565b1980831691505092915050565b60006200077e838362000750565b9150826002028217905092915050565b62000799826200054d565b67ffffffffffffffff811115620007b557620007b462000300565b5b620007c1825462000587565b620007ce828285620006f3565b600060209050601f831160018114620008065760008415620007f1578287015190505b620007fd858262000770565b8655506200086d565b601f1984166200081686620005bc565b60005b82811015620008405784890151825560018201915060208501945060208101905062000819565b868310156200086057848901516200085c601f89168262000750565b8355505b6001600288020188555050505b505050505050565b611f2680620008856000396000f3fe6080604052600436106101395760003560e01c80638291286c116100ab578063a51310851161006f578063a513108514610520578063c9bf2e2914610549578063d333555314610574578063e14891911461059d578063e65d6b49146105c8578063f2fde38b146105f357610265565b80638291286c1461044b5780638980f11f146104765780638da5cb5b1461049f578063931742d3146104ca57806397c0262a146104f557610265565b80633aecd0e3116100fd5780633aecd0e31461033b5780633c130d9014610378578063523fba7f146103a35780636aa00371146103e0578063715018a61461040b5780637d60b6ce1461042257610265565b806312065fe01461026a57806317face841461029557806323393def146102be578063355e6b43146102e9578063357291301461031257610265565b366102655760003411610181576040517f08c379a00000000000000000000000000000000000000000000000000000000081526004016101789061169e565b60405180910390fd5b60006127106002543461019491906116f7565b61019e9190611768565b9050600081346101ae9190611799565b905060006101ba61061c565b73ffffffffffffffffffffffffffffffffffffffff16826040516101dd906117fe565b60006040518083038185875af1925050503d806000811461021a576040519150601f19603f3d011682016040523d82523d6000602084013e61021f565b606091505b5050905080610263576040517f08c379a000000000000000000000000000000000000000000000000000000000815260040161025a9061185f565b60405180910390fd5b005b600080fd5b34801561027657600080fd5b5061027f610645565b60405161028c919061188e565b60405180910390f35b3480156102a157600080fd5b506102bc60048036038101906102b791906118da565b61064d565b005b3480156102ca57600080fd5b506102d36107f2565b6040516102e09190611986565b60405180910390f35b3480156102f557600080fd5b50610310600480360381019061030b91906118da565b610880565b005b34801561031e57600080fd5b5061033960048036038101906103349190611a06565b6108ff565b005b34801561034757600080fd5b50610362600480360381019061035d9190611a46565b610c11565b60405161036f919061188e565b60405180910390f35b34801561038457600080fd5b5061038d610c5a565b60405161039a9190611986565b60405180910390f35b3480156103af57600080fd5b506103ca60048036038101906103c59190611a46565b610cec565b6040516103d7919061188e565b60405180910390f35b3480156103ec57600080fd5b506103f5610d04565b6040516104029190611a82565b60405180910390f35b34801561041757600080fd5b50610420610d2a565b005b34801561042e57600080fd5b5061044960048036038101906104449190611a46565b610d3e565b005b34801561045757600080fd5b50610460610df7565b60405161046d919061188e565b60405180910390f35b34801561048257600080fd5b5061049d60048036038101906104989190611a06565b610dfd565b005b3480156104ab57600080fd5b506104b461061c565b6040516104c19190611a82565b60405180910390f35b3480156104d657600080fd5b506104df610f4d565b6040516104ec9190611a82565b60405180910390f35b34801561050157600080fd5b5061050a610f77565b6040516105179190611a82565b60405180910390f35b34801561052c57600080fd5b5061054760048036038101906105429190611a06565b610f9d565b005b34801561055557600080fd5b5061055e6111dd565b60405161056b9190611a82565b60405180910390f35b34801561058057600080fd5b5061059b600480360381019061059691906118da565b611207565b005b3480156105a957600080fd5b506105b26112b5565b6040516105bf919061188e565b60405180910390f35b3480156105d457600080fd5b506105dd6112bb565b6040516105ea919061188e565b60405180910390f35b3480156105ff57600080fd5b5061061a60048036038101906106159190611a46565b6112c5565b005b60008060009054906101000a900473ffffffffffffffffffffffffffffffffffffffff16905090565b600047905090565b600360009054906101000a900473ffffffffffffffffffffffffffffffffffffffff1673ffffffffffffffffffffffffffffffffffffffff163373ffffffffffffffffffffffffffffffffffffffff16146106dd576040517f08c379a00000000000000000000000000000000000000000000000000000000081526004016106d490611ae9565b60405180910390fd5b47811115610720576040517f08c379a000000000000000000000000000000000000000000000000000000000815260040161071790611b55565b60405180910390fd5b6000600360009054906101000a900473ffffffffffffffffffffffffffffffffffffffff1673ffffffffffffffffffffffffffffffffffffffff1682604051610768906117fe565b60006040518083038185875af1925050503d80600081146107a5576040519150601f19603f3d011682016040523d82523d6000602084013e6107aa565b606091505b50509050806107ee576040517f08c379a00000000000000000000000000000000000000000000000000000000081526004016107e590611bc1565b60405180910390fd5b5050565b600580546107ff90611c10565b80601f016020809104026020016040519081016040528092919081815260200182805461082b90611c10565b80156108785780601f1061084d57610100808354040283529160200191610878565b820191906000526020600020905b81548152906001019060200180831161085b57829003601f168201915b505050505081565b61088861061c565b73ffffffffffffffffffffffffffffffffffffffff163373ffffffffffffffffffffffffffffffffffffffff16146108f5576040517f08c379a00000000000000000000000000000000000000000000000000000000081526004016108ec90611ae9565b60405180910390fd5b8060028190555050565b60008111610942576040517f08c379a000000000000000000000000000000000000000000000000000000000815260040161093990611c8d565b60405180910390fd5b600073ffffffffffffffffffffffffffffffffffffffff168273ffffffffffffffffffffffffffffffffffffffff16036109b1576040517f08c379a00000000000000000000000000000000000000000000000000000000081526004016109a890611cf9565b60405180910390fd5b600082905060008173ffffffffffffffffffffffffffffffffffffffff166370a08231306040518263ffffffff1660e01b81526004016109f19190611a82565b602060405180830381865afa158015610a0e573d6000803e3d6000fd5b505050506040513d601f19601f82011682018060405250810190610a329190611d2e565b9050610a613330858573ffffffffffffffffffffffffffffffffffffffff1661134b909392919063ffffffff16565b6000818373ffffffffffffffffffffffffffffffffffffffff166370a08231306040518263ffffffff1660e01b8152600401610a9d9190611a82565b602060405180830381865afa158015610aba573d6000803e3d6000fd5b505050506040513d601f19601f82011682018060405250810190610ade9190611d2e565b610ae89190611799565b9050600061271060025483610afd91906116f7565b610b079190611768565b905060008183610b179190611799565b9050610b4b610b2461061c565b828773ffffffffffffffffffffffffffffffffffffffff166113cd9092919063ffffffff16565b81600660008973ffffffffffffffffffffffffffffffffffffffff1673ffffffffffffffffffffffffffffffffffffffff1681526020019081526020016000206000828254610b9a9190611d5b565b925050819055503373ffffffffffffffffffffffffffffffffffffffff168773ffffffffffffffffffffffffffffffffffffffff167f46ba4e1e95fc9f44608739ffaee40c318f667c56e4ba6e3d0aa80b803768b9158585604051610c00929190611d8f565b60405180910390a350505050505050565b6000600660008373ffffffffffffffffffffffffffffffffffffffff1673ffffffffffffffffffffffffffffffffffffffff168152602001908152602001600020549050919050565b606060058054610c6990611c10565b80601f0160208091040260200160405190810160405280929190818152602001828054610c9590611c10565b8015610ce25780601f10610cb757610100808354040283529160200191610ce2565b820191906000526020600020905b815481529060010190602001808311610cc557829003601f168201915b5050505050905090565b60066020528060005260406000206000915090505481565b600460009054906101000a900473ffffffffffffffffffffffffffffffffffffffff1681565b610d3261144c565b610d3c60006114d3565b565b610d4661061c565b73ffffffffffffffffffffffffffffffffffffffff163373ffffffffffffffffffffffffffffffffffffffff1614610db3576040517f08c379a0000000000000000000000000000000000000000000000000000000008152600401610daa90611ae9565b60405180910390fd5b80600360006101000a81548173ffffffffffffffffffffffffffffffffffffffff021916908373ffffffffffffffffffffffffffffffffffffffff16021790555050565b60015481565b610e0561144c565b600082905060008173ffffffffffffffffffffffffffffffffffffffff166370a08231306040518263ffffffff1660e01b8152600401610e459190611a82565b602060405180830381865afa158015610e62573d6000803e3d6000fd5b505050506040513d601f19601f82011682018060405250810190610e869190611d2e565b9050600660008573ffffffffffffffffffffffffffffffffffffffff1673ffffffffffffffffffffffffffffffffffffffff1681526020019081526020016000205481610ed39190611799565b831115610f15576040517f08c379a0000000000000000000000000000000000000000000000000000000008152600401610f0c90611e04565b60405180910390fd5b610f47610f2061061c565b848473ffffffffffffffffffffffffffffffffffffffff166113cd9092919063ffffffff16565b50505050565b6000600360009054906101000a900473ffffffffffffffffffffffffffffffffffffffff16905090565b600360009054906101000a900473ffffffffffffffffffffffffffffffffffffffff1681565b600360009054906101000a900473ffffffffffffffffffffffffffffffffffffffff1673ffffffffffffffffffffffffffffffffffffffff163373ffffffffffffffffffffffffffffffffffffffff161461102d576040517f08c379a000000000000000000000000000000000000000000000000000000000815260040161102490611ae9565b60405180910390fd5b600660008373ffffffffffffffffffffffffffffffffffffffff1673ffffffffffffffffffffffffffffffffffffffff168152602001908152602001600020548111156110af576040517f08c379a00000000000000000000000000000000000000000000000000000000081526004016110a690611e70565b60405180910390fd5b80600660008473ffffffffffffffffffffffffffffffffffffffff1673ffffffffffffffffffffffffffffffffffffffff16815260200190815260200160002060008282546110fe9190611799565b92505081905550611152600360009054906101000a900473ffffffffffffffffffffffffffffffffffffffff16828473ffffffffffffffffffffffffffffffffffffffff166113cd9092919063ffffffff16565b600360009054906101000a900473ffffffffffffffffffffffffffffffffffffffff1673ffffffffffffffffffffffffffffffffffffffff168273ffffffffffffffffffffffffffffffffffffffff167f6337ed398c0e8467698c581374fdce4db14922df487b5a39483079f5f59b60a4836040516111d1919061188e565b60405180910390a35050565b6000600460009054906101000a900473ffffffffffffffffffffffffffffffffffffffff16905090565b61120f61144c565b611217610645565b476112229190611799565b811115611264576040517f08c379a000000000000000000000000000000000000000000000000000000000815260040161125b90611e04565b60405180910390fd5b61126c61061c565b73ffffffffffffffffffffffffffffffffffffffff166108fc829081150290604051600060405180830381858888f193505050501580156112b1573d6000803e3d6000fd5b5050565b60025481565b6000600254905090565b6112cd61144c565b600073ffffffffffffffffffffffffffffffffffffffff168173ffffffffffffffffffffffffffffffffffffffff160361133f5760006040517f1e4fbdf70000000000000000000000000000000000000000000000000000000081526004016113369190611a82565b60405180910390fd5b611348816114d3565b50565b6113c7848573ffffffffffffffffffffffffffffffffffffffff166323b872dd86868660405160240161138093929190611e90565b604051602081830303815290604052915060e01b6020820180517bffffffffffffffffffffffffffffffffffffffffffffffffffffffff8381831617835250505050611597565b50505050565b611447838473ffffffffffffffffffffffffffffffffffffffff1663a9059cbb8585604051602401611400929190611ec7565b604051602081830303815290604052915060e01b6020820180517bffffffffffffffffffffffffffffffffffffffffffffffffffffffff8381831617835250505050611597565b505050565b611454611639565b73ffffffffffffffffffffffffffffffffffffffff1661147261061c565b73ffffffffffffffffffffffffffffffffffffffff16146114d157611495611639565b6040517f118cdaa70000000000000000000000000000000000000000000000000000000081526004016114c89190611a82565b60405180910390fd5b565b60008060009054906101000a900473ffffffffffffffffffffffffffffffffffffffff169050816000806101000a81548173ffffffffffffffffffffffffffffffffffffffff021916908373ffffffffffffffffffffffffffffffffffffffff1602179055508173ffffffffffffffffffffffffffffffffffffffff168173ffffffffffffffffffffffffffffffffffffffff167f8be0079c531659141344cd1fd0a4f28419497f9722a3daafe3b4186f6b6457e060405160405180910390a35050565b600080602060008451602086016000885af1806115ba576040513d6000823e3d81fd5b3d9250600051915050600082146115d55760018114156115f1565b60008473ffffffffffffffffffffffffffffffffffffffff163b145b1561163357836040517f5274afe700000000000000000000000000000000000000000000000000000000815260040161162a9190611a82565b60405180910390fd5b50505050565b600033905090565b600082825260208201905092915050565b7f4e6f204554482073656e74000000000000000000000000000000000000000000600082015250565b6000611688600b83611641565b915061169382611652565b602082019050919050565b600060208201905081810360008301526116b78161167b565b9050919050565b6000819050919050565b7f4e487b7100000000000000000000000000000000000000000000000000000000600052601160045260246000fd5b6000611702826116be565b915061170d836116be565b925082820261171b816116be565b91508282048414831517611732576117316116c8565b5b5092915050565b7f4e487b7100000000000000000000000000000000000000000000000000000000600052601260045260246000fd5b6000611773826116be565b915061177e836116be565b92508261178e5761178d611739565b5b828204905092915050565b60006117a4826116be565b91506117af836116be565b92508282039050818111156117c7576117c66116c8565b5b92915050565b600081905092915050565b50565b60006117e86000836117cd565b91506117f3826117d8565b600082019050919050565b6000611809826117db565b9150819050919050565b7f4f776e6572207472616e73666572206661696c65640000000000000000000000600082015250565b6000611849601583611641565b915061185482611813565b602082019050919050565b600060208201905081810360008301526118788161183c565b9050919050565b611888816116be565b82525050565b60006020820190506118a3600083018461187f565b92915050565b600080fd5b6118b7816116be565b81146118c257600080fd5b50565b6000813590506118d4816118ae565b92915050565b6000602082840312156118f0576118ef6118a9565b5b60006118fe848285016118c5565b91505092915050565b600081519050919050565b60005b83811015611930578082015181840152602081019050611915565b60008484015250505050565b6000601f19601f8301169050919050565b600061195882611907565b6119628185611641565b9350611972818560208601611912565b61197b8161193c565b840191505092915050565b600060208201905081810360008301526119a0818461194d565b905092915050565b600073ffffffffffffffffffffffffffffffffffffffff82169050919050565b60006119d3826119a8565b9050919050565b6119e3816119c8565b81146119ee57600080fd5b50565b600081359050611a00816119da565b92915050565b60008060408385031215611a1d57611a1c6118a9565b5b6000611a2b858286016119f1565b9250506020611a3c858286016118c5565b9150509250929050565b600060208284031215611a5c57611a5b6118a9565b5b6000611a6a848285016119f1565b91505092915050565b611a7c816119c8565b82525050565b6000602082019050611a976000830184611a73565b92915050565b7f4e6f74206f776e65720000000000000000000000000000000000000000000000600082015250565b6000611ad3600983611641565b9150611ade82611a9d565b602082019050919050565b60006020820190508181036000830152611b0281611ac6565b9050919050565b7f496e73756666696369656e74204554482062616c616e63650000000000000000600082015250565b6000611b3f601883611641565b9150611b4a82611b09565b602082019050919050565b60006020820190508181036000830152611b6e81611b32565b9050919050565b7f45544820636f6d6d697373696f6e207472616e73666572206661696c65640000600082015250565b6000611bab601e83611641565b9150611bb682611b75565b602082019050919050565b60006020820190508181036000830152611bda81611b9e565b9050919050565b7f4e487b7100000000000000000000000000000000000000000000000000000000600052602260045260246000fd5b60006002820490506001821680611c2857607f821691505b602082108103611c3b57611c3a611be1565b5b50919050565b7f4e6f20746f6b656e732073656e74000000000000000000000000000000000000600082015250565b6000611c77600e83611641565b9150611c8282611c41565b602082019050919050565b60006020820190508181036000830152611ca681611c6a565b9050919050565b7f496e76616c696420746f6b656e20616464726573730000000000000000000000600082015250565b6000611ce3601583611641565b9150611cee82611cad565b602082019050919050565b60006020820190508181036000830152611d1281611cd6565b9050919050565b600081519050611d28816118ae565b92915050565b600060208284031215611d4457611d436118a9565b5b6000611d5284828501611d19565b91505092915050565b6000611d66826116be565b9150611d71836116be565b9250828201905080821115611d8957611d886116c8565b5b92915050565b6000604082019050611da4600083018561187f565b611db1602083018461187f565b9392505050565b7f43616e6e6f7420776974686472617720636f6d6d697373696f6e2066756e6473600082015250565b6000611dee602083611641565b9150611df982611db8565b602082019050919050565b60006020820190508181036000830152611e1d81611de1565b9050919050565b7f496e73756666696369656e7420746f6b656e2062616c616e6365000000000000600082015250565b6000611e5a601a83611641565b9150611e6582611e24565b602082019050919050565b60006020820190508181036000830152611e8981611e4d565b9050919050565b6000606082019050611ea56000830186611a73565b611eb26020830185611a73565b611ebf604083018461187f565b949350505050565b6000604082019050611edc6000830185611a73565b611ee9602083018461187f565b939250505056fea26469706673582212200a6afc405ac6d1df1870dd43665c5319ec33fead6f51c5f8bb742bcd9b7a444464736f6c63430008140033a26469706673582212208ee5cbf3b3ff8ed1ba1fdd4a0c58ce955ffe17c5385d1463e840c98d833712fa64736f6c63430008140033",
  "linkReferences": {},
  "deployedLinkReferences": {}
}