{
  "_format": "hh-sol-artifact-1",
  "contractName": "AddressCollectionV2",
  "sourceName": "contracts/AddressCollectionV2.sol",
  "abi": [
    {
      "inputs": [
        {
          "internalType": "uint256",
          "name": "_royaltyFee",
          "type": "uint256"
        },
        {
          "internalType": "address",
          "name": "_royaltyRecipient",
          "type": "address"
        },
        {
          "internalType": "address",
          "name": "initialOwner",
          "type": "address"
        }
      ],
      "stateMutability": "nonpayable",
      "type": "constructor"
    },
    {
      "inputs": [
        {
          "internalType": "address",
          "name": "owner",
          "type": "address"
        }
      ],
      "name": "OwnableInvalidOwner",
      "type": "error"
    },
    {
      "inputs": [
        {
          "internalType": "address",
          "name": "account",
          "type": "address"
        }
      ],
      "name": "OwnableUnauthorizedAccount",
      "type": "error"
    },
    {
      "anonymous": false,
      "inputs": [
        {
          "indexed": true,
          "internalType": "address",
          "name": "previousOwner",
          "type": "address"
        },
        {
          "indexed": true,
          "internalType": "address",
          "name": "newOwner",
          "type": "address"
        }
      ],
      "name": "OwnershipTransferred",
      "type": "event"
    },
    {
      "anonymous": false,
      "inputs": [
        {
          "indexed": true,
          "internalType": "address",
          "name": "tokenAddress",
          "type": "address"
        },
        {
          "indexed": true,
          "internalType": "address",
          "name": "owner",
          "type": "address"
        }
      ],
      "name": "TokenCreated",
      "type": "event"
    },
    {
      "inputs": [
        {
          "internalType": "uint256",
          "name": "",
          "type": "uint256"
        }
      ],
      "name": "allTokens",
      "outputs": [
        {
          "internalType": "address",
          "name": "",
          "type": "address"
        }
      ],
      "stateMutability": "view",
      "type": "function"
    },
    {
      "inputs": [
        {
          "internalType": "uint256",
          "name": "index",
          "type": "uint256"
        }
      ],
      "name": "getNftAddress",
      "outputs": [
        {
          "internalType": "address",
          "name": "",
          "type": "address"
        }
      ],
      "stateMutability": "view",
      "type": "function"
    },
    {
      "inputs": [
        {
          "internalType": "uint256",
          "name": "contractId",
          "type": "uint256"
        },
        {
          "internalType": "address",
          "name": "collectionAddress",
          "type": "address"
        },
        {
          "internalType": "address",
          "name": "nftOwner",
          "type": "address"
        },
        {
          "internalType": "string",
          "name": "metadata_url",
          "type": "string"
        }
      ],
      "name": "mintNFT",
      "outputs": [
        {
          "internalType": "address",
          "name": "",
          "type": "address"
        }
      ],
      "stateMutability": "nonpayable",
      "type": "function"
    },
    {
      "inputs": [],
      "name": "owner",
      "outputs": [
        {
          "internalType": "address",
          "name": "",
          "type": "address"
        }
      ],
      "stateMutability": "view",
      "type": "function"
    },
    {
      "inputs": [],
      "name": "renounceOwnership",
      "outputs": [],
      "stateMutability": "nonpayable",
      "type": "function"
    },
    {
      "inputs": [],
      "name": "royaltyFee",
      "outputs": [
        {
          "internalType": "uint256",
          "name": "",
          "type": "uint256"
        }
      ],
      "stateMutability": "view",
      "type": "function"
    },
    {
      "inputs": [
        {
          "internalType": "uint256",
          "name": "",
          "type": "uint256"
        },
        {
          "internalType": "uint256",
          "name": "salePrice",
          "type": "uint256"
        }
      ],
      "name": "royaltyInfo",
      "outputs": [
        {
          "internalType": "address",
          "name": "receiver",
          "type": "address"
        },
        {
          "internalType": "uint256",
          "name": "royaltyAmount",
          "type": "uint256"
        }
      ],
      "stateMutability": "view",
      "type": "function"
    },
    {
      "inputs": [],
      "name": "royaltyRecipient",
      "outputs": [
        {
          "internalType": "address",
          "name": "",
          "type": "address"
        }
      ],
      "stateMutability": "view",
      "type": "function"
    },
    {
      "inputs": [
        {
          "internalType": "address",
          "name": "_recipient",
          "type": "address"
        },
        {
          "internalType": "uint256",
          "name": "_fee",
          "type": "uint256"
        }
      ],
      "name": "setRoyaltyInfo",
      "outputs": [],
      "stateMutability": "nonpayable",
      "type": "function"
    },
    {
      "inputs": [
        {
          "internalType": "bytes4",
          "name": "interfaceId",
          "type": "bytes4"
        }
      ],
      "name": "supportsInterface",
      "outputs": [
        {
          "internalType": "bool",
          "name": "",
          "type": "bool"
        }
      ],
      "stateMutability": "pure",
      "type": "function"
    },
    {
      "inputs": [
        {
          "internalType": "address",
          "name": "newOwner",
          "type": "address"
        }
      ],
      "name": "transferOwnership",
      "outputs": [],
      "stateMutability": "nonpayable",
      "type": "function"
    },
    {
      "inputs": [],
      "name": "withdraw",
      "outputs": [],
      "stateMutability": "nonpayable",
      "type": "function"
    }
  ],
  "bytecode": "0x60806040523480156200001157600080fd5b506040516200330c3803806200330c833981810160405281019062000037919062000279565b80600073ffffffffffffffffffffffffffffffffffffffff168173ffffffffffffffffffffffffffffffffffffffff1603620000ad5760006040517f1e4fbdf7000000000000000000000000000000000000000000000000000000008152600401620000a49190620002e6565b60405180910390fd5b620000be816200011060201b60201c565b508260018190555081600260006101000a81548173ffffffffffffffffffffffffffffffffffffffff021916908373ffffffffffffffffffffffffffffffffffffffff16021790555050505062000303565b60008060009054906101000a900473ffffffffffffffffffffffffffffffffffffffff169050816000806101000a81548173ffffffffffffffffffffffffffffffffffffffff021916908373ffffffffffffffffffffffffffffffffffffffff1602179055508173ffffffffffffffffffffffffffffffffffffffff168173ffffffffffffffffffffffffffffffffffffffff167f8be0079c531659141344cd1fd0a4f28419497f9722a3daafe3b4186f6b6457e060405160405180910390a35050565b600080fd5b6000819050919050565b620001ee81620001d9565b8114620001fa57600080fd5b50565b6000815190506200020e81620001e3565b92915050565b600073ffffffffffffffffffffffffffffffffffffffff82169050919050565b6000620002418262000214565b9050919050565b620002538162000234565b81146200025f57600080fd5b50565b600081519050620002738162000248565b92915050565b600080600060608486031215620002955762000294620001d4565b5b6000620002a586828701620001fd565b9350506020620002b88682870162000262565b9250506040620002cb8682870162000262565b9150509250925092565b620002e08162000234565b82525050565b6000602082019050620002fd6000830184620002d5565b92915050565b612ff980620003136000396000f3fe60806040523480156200001157600080fd5b5060043610620000c45760003560e01c8063715018a6116200007b578063715018a614620001d05780638da5cb5b14620001dc578063b8997a9714620001fe578063e2e784d51462000220578063e8072bd41462000240578063f2fde38b146200027657620000c4565b806301ffc9a714620000c95780631d052e7314620000ff5780632a55205a14620001355780633ccfd60b146200016c5780634c00de821462000178578063634282af146200019a575b600080fd5b620000e76004803603810190620000e19190620009e4565b62000296565b604051620000f6919062000a33565b60405180910390f35b6200011d600480360381019062000117919062000c52565b62000369565b6040516200012c919062000cf4565b60405180910390f35b6200015360048036038101906200014d919062000d11565b62000481565b6040516200016392919062000d69565b60405180910390f35b62000176620004d1565b005b62000182620005e6565b60405162000191919062000cf4565b60405180910390f35b620001b86004803603810190620001b2919062000d96565b6200060c565b604051620001c7919062000cf4565b60405180910390f35b620001da6200064c565b005b620001e662000664565b604051620001f5919062000cf4565b60405180910390f35b620002086200068d565b60405162000217919062000dc8565b60405180910390f35b6200023e600480360381019062000238919062000de5565b62000693565b005b6200025e600480360381019062000258919062000d96565b62000731565b6040516200026d919062000cf4565b60405180910390f35b6200029460048036038101906200028e919062000e2c565b6200077c565b005b60007f2a55205a000000000000000000000000000000000000000000000000000000007bffffffffffffffffffffffffffffffffffffffffffffffffffffffff1916827bffffffffffffffffffffffffffffffffffffffffffffffffffffffff191614806200036257507f01ffc9a7000000000000000000000000000000000000000000000000000000007bffffffffffffffffffffffffffffffffffffffffffffffffffffffff1916827bffffffffffffffffffffffffffffffffffffffffffffffffffffffff1916145b9050919050565b60006200037562000809565b600085858585604051620003899062000965565b62000398949392919062000ee7565b604051809103906000f080158015620003b5573d6000803e3d6000fd5b5090506003819080600181540180825580915050600190039060005260206000200160009091909190916101000a81548173ffffffffffffffffffffffffffffffffffffffff021916908373ffffffffffffffffffffffffffffffffffffffff1602179055503373ffffffffffffffffffffffffffffffffffffffff168173ffffffffffffffffffffffffffffffffffffffff167fd5f9bdf12adf29dab0248c349842c3822d53ae2bb4f36352f301630d018c813960405160405180910390a380915050949350505050565b600080600260009054906101000a900473ffffffffffffffffffffffffffffffffffffffff1661271060015485620004ba919062000f6a565b620004c6919062000fe4565b915091509250929050565b620004db62000809565b60004790506000811162000526576040517f08c379a00000000000000000000000000000000000000000000000000000000081526004016200051d906200106c565b60405180910390fd5b60006200053262000664565b73ffffffffffffffffffffffffffffffffffffffff16826040516200055790620010c3565b60006040518083038185875af1925050503d806000811462000596576040519150601f19603f3d011682016040523d82523d6000602084013e6200059b565b606091505b5050905080620005e2576040517f08c379a0000000000000000000000000000000000000000000000000000000008152600401620005d9906200112a565b60405180910390fd5b5050565b600260009054906101000a900473ffffffffffffffffffffffffffffffffffffffff1681565b600381815481106200061d57600080fd5b906000526020600020016000915054906101000a900473ffffffffffffffffffffffffffffffffffffffff1681565b6200065662000809565b62000662600062000899565b565b60008060009054906101000a900473ffffffffffffffffffffffffffffffffffffffff16905090565b60015481565b6200069d62000809565b612710811115620006e5576040517f08c379a0000000000000000000000000000000000000000000000000000000008152600401620006dc906200119c565b60405180910390fd5b81600260006101000a81548173ffffffffffffffffffffffffffffffffffffffff021916908373ffffffffffffffffffffffffffffffffffffffff160217905550806001819055505050565b6000600382815481106200074a5762000749620011be565b5b9060005260206000200160009054906101000a900473ffffffffffffffffffffffffffffffffffffffff169050919050565b6200078662000809565b600073ffffffffffffffffffffffffffffffffffffffff168173ffffffffffffffffffffffffffffffffffffffff1603620007fb5760006040517f1e4fbdf7000000000000000000000000000000000000000000000000000000008152600401620007f2919062000cf4565b60405180910390fd5b620008068162000899565b50565b620008136200095d565b73ffffffffffffffffffffffffffffffffffffffff166200083362000664565b73ffffffffffffffffffffffffffffffffffffffff16146200089757620008596200095d565b6040517f118cdaa70000000000000000000000000000000000000000000000000000000081526004016200088e919062000cf4565b60405180910390fd5b565b60008060009054906101000a900473ffffffffffffffffffffffffffffffffffffffff169050816000806101000a81548173ffffffffffffffffffffffffffffffffffffffff021916908373ffffffffffffffffffffffffffffffffffffffff1602179055508173ffffffffffffffffffffffffffffffffffffffff168173ffffffffffffffffffffffffffffffffffffffff167f8be0079c531659141344cd1fd0a4f28419497f9722a3daafe3b4186f6b6457e060405160405180910390a35050565b600033905090565b611dd680620011ee83390190565b6000604051905090565b600080fd5b600080fd5b60007fffffffff0000000000000000000000000000000000000000000000000000000082169050919050565b620009be8162000987565b8114620009ca57600080fd5b50565b600081359050620009de81620009b3565b92915050565b600060208284031215620009fd57620009fc6200097d565b5b600062000a0d84828501620009cd565b91505092915050565b60008115159050919050565b62000a2d8162000a16565b82525050565b600060208201905062000a4a600083018462000a22565b92915050565b6000819050919050565b62000a658162000a50565b811462000a7157600080fd5b50565b60008135905062000a858162000a5a565b92915050565b600073ffffffffffffffffffffffffffffffffffffffff82169050919050565b600062000ab88262000a8b565b9050919050565b62000aca8162000aab565b811462000ad657600080fd5b50565b60008135905062000aea8162000abf565b92915050565b600080fd5b600080fd5b6000601f19601f8301169050919050565b7f4e487b7100000000000000000000000000000000000000000000000000000000600052604160045260246000fd5b62000b458262000afa565b810181811067ffffffffffffffff8211171562000b675762000b6662000b0b565b5b80604052505050565b600062000b7c62000973565b905062000b8a828262000b3a565b919050565b600067ffffffffffffffff82111562000bad5762000bac62000b0b565b5b62000bb88262000afa565b9050602081019050919050565b82818337600083830152505050565b600062000beb62000be58462000b8f565b62000b70565b90508281526020810184848401111562000c0a5762000c0962000af5565b5b62000c1784828562000bc5565b509392505050565b600082601f83011262000c375762000c3662000af0565b5b813562000c4984826020860162000bd4565b91505092915050565b6000806000806080858703121562000c6f5762000c6e6200097d565b5b600062000c7f8782880162000a74565b945050602062000c928782880162000ad9565b935050604062000ca58782880162000ad9565b925050606085013567ffffffffffffffff81111562000cc95762000cc862000982565b5b62000cd78782880162000c1f565b91505092959194509250565b62000cee8162000aab565b82525050565b600060208201905062000d0b600083018462000ce3565b92915050565b6000806040838503121562000d2b5762000d2a6200097d565b5b600062000d3b8582860162000a74565b925050602062000d4e8582860162000a74565b9150509250929050565b62000d638162000a50565b82525050565b600060408201905062000d80600083018562000ce3565b62000d8f602083018462000d58565b9392505050565b60006020828403121562000daf5762000dae6200097d565b5b600062000dbf8482850162000a74565b91505092915050565b600060208201905062000ddf600083018462000d58565b92915050565b6000806040838503121562000dff5762000dfe6200097d565b5b600062000e0f8582860162000ad9565b925050602062000e228582860162000a74565b9150509250929050565b60006020828403121562000e455762000e446200097d565b5b600062000e558482850162000ad9565b91505092915050565b600081519050919050565b600082825260208201905092915050565b60005b8381101562000e9a57808201518184015260208101905062000e7d565b60008484015250505050565b600062000eb38262000e5e565b62000ebf818562000e69565b935062000ed181856020860162000e7a565b62000edc8162000afa565b840191505092915050565b600060808201905062000efe600083018762000d58565b62000f0d602083018662000ce3565b62000f1c604083018562000ce3565b818103606083015262000f30818462000ea6565b905095945050505050565b7f4e487b7100000000000000000000000000000000000000000000000000000000600052601160045260246000fd5b600062000f778262000a50565b915062000f848362000a50565b925082820262000f948162000a50565b9150828204841483151762000fae5762000fad62000f3b565b5b5092915050565b7f4e487b7100000000000000000000000000000000000000000000000000000000600052601260045260246000fd5b600062000ff18262000a50565b915062000ffe8362000a50565b92508262001011576200101062000fb5565b5b828204905092915050565b7f4e6f2066756e647320617661696c61626c650000000000000000000000000000600082015250565b60006200105460128362000e69565b915062001061826200101c565b602082019050919050565b60006020820190508181036000830152620010878162001045565b9050919050565b600081905092915050565b50565b6000620010ab6000836200108e565b9150620010b88262001099565b600082019050919050565b6000620010d0826200109c565b9150819050919050565b7f5769746864726177206661696c65640000000000000000000000000000000000600082015250565b600062001112600f8362000e69565b91506200111f82620010da565b602082019050919050565b60006020820190508181036000830152620011458162001103565b9050919050565b7f526f79616c74792066656520746f6f2068696768000000000000000000000000600082015250565b60006200118460148362000e69565b915062001191826200114c565b602082019050919050565b60006020820190508181036000830152620011b78162001175565b9050919050565b7f4e487b7100000000000000000000000000000000000000000000000000000000600052603260045260246000fdfe60806040523480156200001157600080fd5b5060405162001dd638038062001dd683398181016040528101906200003791906200041a565b81600073ffffffffffffffffffffffffffffffffffffffff168173ffffffffffffffffffffffffffffffffffffffff1603620000ad5760006040517f1e4fbdf7000000000000000000000000000000000000000000000000000000008152600401620000a49190620004bc565b60405180910390fd5b620000be816200012360201b60201c565b508360018190555082600260006101000a81548173ffffffffffffffffffffffffffffffffffffffff021916908373ffffffffffffffffffffffffffffffffffffffff16021790555080600390816200011891906200071a565b505050505062000801565b60008060009054906101000a900473ffffffffffffffffffffffffffffffffffffffff169050816000806101000a81548173ffffffffffffffffffffffffffffffffffffffff021916908373ffffffffffffffffffffffffffffffffffffffff1602179055508173ffffffffffffffffffffffffffffffffffffffff168173ffffffffffffffffffffffffffffffffffffffff167f8be0079c531659141344cd1fd0a4f28419497f9722a3daafe3b4186f6b6457e060405160405180910390a35050565b6000604051905090565b600080fd5b600080fd5b6000819050919050565b6200021081620001fb565b81146200021c57600080fd5b50565b600081519050620002308162000205565b92915050565b600073ffffffffffffffffffffffffffffffffffffffff82169050919050565b6000620002638262000236565b9050919050565b620002758162000256565b81146200028157600080fd5b50565b60008151905062000295816200026a565b92915050565b600080fd5b600080fd5b6000601f19601f8301169050919050565b7f4e487b7100000000000000000000000000000000000000000000000000000000600052604160045260246000fd5b620002f082620002a5565b810181811067ffffffffffffffff82111715620003125762000311620002b6565b5b80604052505050565b600062000327620001e7565b9050620003358282620002e5565b919050565b600067ffffffffffffffff821115620003585762000357620002b6565b5b6200036382620002a5565b9050602081019050919050565b60005b838110156200039057808201518184015260208101905062000373565b60008484015250505050565b6000620003b3620003ad846200033a565b6200031b565b905082815260208101848484011115620003d257620003d1620002a0565b5b620003df84828562000370565b509392505050565b600082601f830112620003ff57620003fe6200029b565b5b8151620004118482602086016200039c565b91505092915050565b60008060008060808587031215620004375762000436620001f1565b5b600062000447878288016200021f565b94505060206200045a8782880162000284565b93505060406200046d8782880162000284565b925050606085015167ffffffffffffffff811115620004915762000490620001f6565b5b6200049f87828801620003e7565b91505092959194509250565b620004b68162000256565b82525050565b6000602082019050620004d36000830184620004ab565b92915050565b600081519050919050565b7f4e487b7100000000000000000000000000000000000000000000000000000000600052602260045260246000fd5b600060028204905060018216806200052c57607f821691505b602082108103620005425762000541620004e4565b5b50919050565b60008190508160005260206000209050919050565b60006020601f8301049050919050565b600082821b905092915050565b600060088302620005ac7fffffffffffffffffffffffffffffffffffffffffffffffffffffffffffffffff826200056d565b620005b886836200056d565b95508019841693508086168417925050509392505050565b6000819050919050565b6000620005fb620005f5620005ef84620001fb565b620005d0565b620001fb565b9050919050565b6000819050919050565b6200061783620005da565b6200062f620006268262000602565b8484546200057a565b825550505050565b600090565b6200064662000637565b620006538184846200060c565b505050565b5b818110156200067b576200066f6000826200063c565b60018101905062000659565b5050565b601f821115620006ca57620006948162000548565b6200069f846200055d565b81016020851015620006af578190505b620006c7620006be856200055d565b83018262000658565b50505b505050565b600082821c905092915050565b6000620006ef60001984600802620006cf565b1980831691505092915050565b60006200070a8383620006dc565b9150826002028217905092915050565b6200072582620004d9565b67ffffffffffffffff811115620007415762000740620002b6565b5b6200074d825462000513565b6200075a8282856200067f565b600060209050601f8311600181146200079257600084156200077d578287015190505b620007898582620006fc565b865550620007f9565b601f198416620007a28662000548565b60005b82811015620007cc57848901518255600182019150602085019450602081019050620007a5565b86831015620007ec5784890151620007e8601f891682620006dc565b8355505b6001600288020188555050505b505050505050565b6115c580620008116000396000f3fe6080604052600436106100c65760003560e01c8063715018a61161007f578063c9bf2e2911610059578063c9bf2e2914610395578063cb963728146103c0578063f2fde38b146103e9578063f5648a4f1461041257610211565b8063715018a6146103285780638291286c1461033f5780638da5cb5b1461036a57610211565b806312065fe01461021657806323393def14610241578063357291301461026c5780633aecd0e3146102955780633c130d90146102d25780636aa00371146102fd57610211565b36610211576000341161010e576040517f08c379a000000000000000000000000000000000000000000000000000000000815260040161010590610f41565b60405180910390fd5b6000610118610429565b73ffffffffffffffffffffffffffffffffffffffff163460405161013b90610f92565b60006040518083038185875af1925050503d8060008114610178576040519150601f19603f3d011682016040523d82523d6000602084013e61017d565b606091505b50509050806101c1576040517f08c379a00000000000000000000000000000000000000000000000000000000081526004016101b890610ff3565b60405180910390fd5b3373ffffffffffffffffffffffffffffffffffffffff167fbfe611b001dfcd411432f7bf0d79b82b4b2ee81511edac123a3403c357fb972a34604051610207919061102c565b60405180910390a2005b600080fd5b34801561022257600080fd5b5061022b610452565b604051610238919061102c565b60405180910390f35b34801561024d57600080fd5b5061025661045a565b60405161026391906110c6565b60405180910390f35b34801561027857600080fd5b50610293600480360381019061028e9190611177565b6104e8565b005b3480156102a157600080fd5b506102bc60048036038101906102b791906111b7565b610771565b6040516102c9919061102c565b60405180910390f35b3480156102de57600080fd5b506102e76107f4565b6040516102f491906110c6565b60405180910390f35b34801561030957600080fd5b50610312610886565b60405161031f91906111f3565b60405180910390f35b34801561033457600080fd5b5061033d6108ac565b005b34801561034b57600080fd5b506103546108c0565b604051610361919061102c565b60405180910390f35b34801561037657600080fd5b5061037f610429565b60405161038c91906111f3565b60405180910390f35b3480156103a157600080fd5b506103aa6108c6565b6040516103b791906111f3565b60405180910390f35b3480156103cc57600080fd5b506103e760048036038101906103e291906111b7565b6108f0565b005b3480156103f557600080fd5b50610410600480360381019061040b91906111b7565b610a61565b005b34801561041e57600080fd5b50610427610ae7565b005b60008060009054906101000a900473ffffffffffffffffffffffffffffffffffffffff16905090565b600047905090565b600380546104679061123d565b80601f01602080910402602001604051908101604052809291908181526020018280546104939061123d565b80156104e05780601f106104b5576101008083540402835291602001916104e0565b820191906000526020600020905b8154815290600101906020018083116104c357829003601f168201915b505050505081565b6000811161052b576040517f08c379a0000000000000000000000000000000000000000000000000000000008152600401610522906112ba565b60405180910390fd5b600073ffffffffffffffffffffffffffffffffffffffff168273ffffffffffffffffffffffffffffffffffffffff160361059a576040517f08c379a000000000000000000000000000000000000000000000000000000000815260040161059190611326565b60405180910390fd5b600082905060008173ffffffffffffffffffffffffffffffffffffffff166370a08231306040518263ffffffff1660e01b81526004016105da91906111f3565b602060405180830381865afa1580156105f7573d6000803e3d6000fd5b505050506040513d601f19601f8201168201806040525081019061061b919061135b565b905061064a3330858573ffffffffffffffffffffffffffffffffffffffff16610bee909392919063ffffffff16565b6000818373ffffffffffffffffffffffffffffffffffffffff166370a08231306040518263ffffffff1660e01b815260040161068691906111f3565b602060405180830381865afa1580156106a3573d6000803e3d6000fd5b505050506040513d601f19601f820116820180604052508101906106c7919061135b565b6106d191906113b7565b90506107056106de610429565b828573ffffffffffffffffffffffffffffffffffffffff16610c709092919063ffffffff16565b3373ffffffffffffffffffffffffffffffffffffffff168573ffffffffffffffffffffffffffffffffffffffff167f0af1239547617509a79d1ff0ee4be9ca943bc8410cb0b282dda97d27995a0acd83604051610762919061102c565b60405180910390a35050505050565b60008173ffffffffffffffffffffffffffffffffffffffff166370a08231306040518263ffffffff1660e01b81526004016107ac91906111f3565b602060405180830381865afa1580156107c9573d6000803e3d6000fd5b505050506040513d601f19601f820116820180604052508101906107ed919061135b565b9050919050565b6060600380546108039061123d565b80601f016020809104026020016040519081016040528092919081815260200182805461082f9061123d565b801561087c5780601f106108515761010080835404028352916020019161087c565b820191906000526020600020905b81548152906001019060200180831161085f57829003601f168201915b5050505050905090565b600260009054906101000a900473ffffffffffffffffffffffffffffffffffffffff1681565b6108b4610cef565b6108be6000610d76565b565b60015481565b6000600260009054906101000a900473ffffffffffffffffffffffffffffffffffffffff16905090565b6108f8610cef565b600081905060008173ffffffffffffffffffffffffffffffffffffffff166370a08231306040518263ffffffff1660e01b815260040161093891906111f3565b602060405180830381865afa158015610955573d6000803e3d6000fd5b505050506040513d601f19601f82011682018060405250810190610979919061135b565b9050600081116109be576040517f08c379a00000000000000000000000000000000000000000000000000000000081526004016109b590611437565b60405180910390fd5b6109f06109c9610429565b828473ffffffffffffffffffffffffffffffffffffffff16610c709092919063ffffffff16565b6109f8610429565b73ffffffffffffffffffffffffffffffffffffffff168373ffffffffffffffffffffffffffffffffffffffff167f6337ed398c0e8467698c581374fdce4db14922df487b5a39483079f5f59b60a483604051610a54919061102c565b60405180910390a3505050565b610a69610cef565b600073ffffffffffffffffffffffffffffffffffffffff168173ffffffffffffffffffffffffffffffffffffffff1603610adb5760006040517f1e4fbdf7000000000000000000000000000000000000000000000000000000008152600401610ad291906111f3565b60405180910390fd5b610ae481610d76565b50565b610aef610cef565b600047905060008111610b37576040517f08c379a0000000000000000000000000000000000000000000000000000000008152600401610b2e906114a3565b60405180910390fd5b6000610b41610429565b73ffffffffffffffffffffffffffffffffffffffff1682604051610b6490610f92565b60006040518083038185875af1925050503d8060008114610ba1576040519150601f19603f3d011682016040523d82523d6000602084013e610ba6565b606091505b5050905080610bea576040517f08c379a0000000000000000000000000000000000000000000000000000000008152600401610be19061150f565b60405180910390fd5b5050565b610c6a848573ffffffffffffffffffffffffffffffffffffffff166323b872dd868686604051602401610c239392919061152f565b604051602081830303815290604052915060e01b6020820180517bffffffffffffffffffffffffffffffffffffffffffffffffffffffff8381831617835250505050610e3a565b50505050565b610cea838473ffffffffffffffffffffffffffffffffffffffff1663a9059cbb8585604051602401610ca3929190611566565b604051602081830303815290604052915060e01b6020820180517bffffffffffffffffffffffffffffffffffffffffffffffffffffffff8381831617835250505050610e3a565b505050565b610cf7610edc565b73ffffffffffffffffffffffffffffffffffffffff16610d15610429565b73ffffffffffffffffffffffffffffffffffffffff1614610d7457610d38610edc565b6040517f118cdaa7000000000000000000000000000000000000000000000000000000008152600401610d6b91906111f3565b60405180910390fd5b565b60008060009054906101000a900473ffffffffffffffffffffffffffffffffffffffff169050816000806101000a81548173ffffffffffffffffffffffffffffffffffffffff021916908373ffffffffffffffffffffffffffffffffffffffff1602179055508173ffffffffffffffffffffffffffffffffffffffff168173ffffffffffffffffffffffffffffffffffffffff167f8be0079c531659141344cd1fd0a4f28419497f9722a3daafe3b4186f6b6457e060405160405180910390a35050565b600080602060008451602086016000885af180610e5d576040513d6000823e3d81fd5b3d925060005191505060008214610e78576001811415610e94565b60008473ffffffffffffffffffffffffffffffffffffffff163b145b15610ed657836040517f5274afe7000000000000000000000000000000000000000000000000000000008152600401610ecd91906111f3565b60405180910390fd5b50505050565b600033905090565b600082825260208201905092915050565b7f4e6f204554482073656e74000000000000000000000000000000000000000000600082015250565b6000610f2b600b83610ee4565b9150610f3682610ef5565b602082019050919050565b60006020820190508181036000830152610f5a81610f1e565b9050919050565b600081905092915050565b50565b6000610f7c600083610f61565b9150610f8782610f6c565b600082019050919050565b6000610f9d82610f6f565b9150819050919050565b7f4f776e6572207472616e73666572206661696c65640000000000000000000000600082015250565b6000610fdd601583610ee4565b9150610fe882610fa7565b602082019050919050565b6000602082019050818103600083015261100c81610fd0565b9050919050565b6000819050919050565b61102681611013565b82525050565b6000602082019050611041600083018461101d565b92915050565b600081519050919050565b60005b83811015611070578082015181840152602081019050611055565b60008484015250505050565b6000601f19601f8301169050919050565b600061109882611047565b6110a28185610ee4565b93506110b2818560208601611052565b6110bb8161107c565b840191505092915050565b600060208201905081810360008301526110e0818461108d565b905092915050565b600080fd5b600073ffffffffffffffffffffffffffffffffffffffff82169050919050565b6000611118826110ed565b9050919050565b6111288161110d565b811461113357600080fd5b50565b6000813590506111458161111f565b92915050565b61115481611013565b811461115f57600080fd5b50565b6000813590506111718161114b565b92915050565b6000806040838503121561118e5761118d6110e8565b5b600061119c85828601611136565b92505060206111ad85828601611162565b9150509250929050565b6000602082840312156111cd576111cc6110e8565b5b60006111db84828501611136565b91505092915050565b6111ed8161110d565b82525050565b600060208201905061120860008301846111e4565b92915050565b7f4e487b7100000000000000000000000000000000000000000000000000000000600052602260045260246000fd5b6000600282049050600182168061125557607f821691505b6020821081036112685761126761120e565b5b50919050565b7f4e6f20746f6b656e732073656e74000000000000000000000000000000000000600082015250565b60006112a4600e83610ee4565b91506112af8261126e565b602082019050919050565b600060208201905081810360008301526112d381611297565b9050919050565b7f496e76616c696420746f6b656e20616464726573730000000000000000000000600082015250565b6000611310601583610ee4565b915061131b826112da565b602082019050919050565b6000602082019050818103600083015261133f81611303565b9050919050565b6000815190506113558161114b565b92915050565b600060208284031215611371576113706110e8565b5b600061137f84828501611346565b91505092915050565b7f4e487b7100000000000000000000000000000000000000000000000000000000600052601160045260246000fd5b60006113c282611013565b91506113cd83611013565b92508282039050818111156113e5576113e4611388565b5b92915050565b7f4e6f20746f6b656e7320746f2077697468647261770000000000000000000000600082015250565b6000611421601583610ee4565b915061142c826113eb565b602082019050919050565b6000602082019050818103600083015261145081611414565b9050919050565b7f4e6f2045544820746f2077697468647261770000000000000000000000000000600082015250565b600061148d601283610ee4565b915061149882611457565b602082019050919050565b600060208201905081810360008301526114bc81611480565b9050919050565b7f455448207472616e73666572206661696c656400000000000000000000000000600082015250565b60006114f9601383610ee4565b9150611504826114c3565b602082019050919050565b60006020820190508181036000830152611528816114ec565b9050919050565b600060608201905061154460008301866111e4565b61155160208301856111e4565b61155e604083018461101d565b949350505050565b600060408201905061157b60008301856111e4565b611588602083018461101d565b939250505056fea2646970667358221220a824a946027cb2987b0786108ce2fbb632e59a1013419be559d3ed9cdfb901b864736f6c63430008140033a26469706673582212200277af0b5d8870b01ac1796cc1fc45dc88b3e586f63e0a7b1e52355ae1498de564736f6c63430008140033",
  "linkReferences": {},
  "deployedLinkReferences": {}
}