{
  "_format": "hh-sol-artifact-1",
  "contractName": "AddressCollectionV5",
  "sourceName": "contracts/AddressCollectionV5.sol",
  "abi": [
    {
      "inputs": [
        {
          "internalType": "uint256",
          "name": "_royaltyFee",
          "type": "uint256"
        },
        {
          "internalType": "address",
          "name": "_royaltyRecipient",
          "type": "address"
        },
        {
          "internalType": "address",
          "name": "initialOwner",
          "type": "address"
        }
      ],
      "stateMutability": "nonpayable",
      "type": "constructor"
    },
    {
      "inputs": [
        {
          "internalType": "address",
          "name": "owner",
          "type": "address"
        }
      ],
      "name": "OwnableInvalidOwner",
      "type": "error"
    },
    {
      "inputs": [
        {
          "internalType": "address",
          "name": "account",
          "type": "address"
        }
      ],
      "name": "OwnableUnauthorizedAccount",
      "type": "error"
    },
    {
      "anonymous": false,
      "inputs": [
        {
          "indexed": true,
          "internalType": "address",
          "name": "previousOwner",
          "type": "address"
        },
        {
          "indexed": true,
          "internalType": "address",
          "name": "newOwner",
          "type": "address"
        }
      ],
      "name": "OwnershipTransferred",
      "type": "event"
    },
    {
      "anonymous": false,
      "inputs": [
        {
          "indexed": true,
          "internalType": "address",
          "name": "tokenAddress",
          "type": "address"
        },
        {
          "indexed": true,
          "internalType": "address",
          "name": "owner",
          "type": "address"
        }
      ],
      "name": "TokenCreated",
      "type": "event"
    },
    {
      "inputs": [
        {
          "internalType": "uint256",
          "name": "",
          "type": "uint256"
        }
      ],
      "name": "allTokens",
      "outputs": [
        {
          "internalType": "address",
          "name": "",
          "type": "address"
        }
      ],
      "stateMutability": "view",
      "type": "function"
    },
    {
      "inputs": [
        {
          "internalType": "uint256",
          "name": "index",
          "type": "uint256"
        }
      ],
      "name": "getNftAddress",
      "outputs": [
        {
          "internalType": "address",
          "name": "",
          "type": "address"
        }
      ],
      "stateMutability": "view",
      "type": "function"
    },
    {
      "inputs": [
        {
          "internalType": "uint256",
          "name": "contractId",
          "type": "uint256"
        },
        {
          "internalType": "address",
          "name": "collectionAddress",
          "type": "address"
        },
        {
          "internalType": "address",
          "name": "nftOwner",
          "type": "address"
        },
        {
          "internalType": "string",
          "name": "metadata_url",
          "type": "string"
        },
        {
          "internalType": "uint256",
          "name": "commission",
          "type": "uint256"
        },
        {
          "internalType": "address",
          "name": "commissionWallet",
          "type": "address"
        }
      ],
      "name": "mintNFT",
      "outputs": [
        {
          "internalType": "address",
          "name": "",
          "type": "address"
        }
      ],
      "stateMutability": "nonpayable",
      "type": "function"
    },
    {
      "inputs": [],
      "name": "owner",
      "outputs": [
        {
          "internalType": "address",
          "name": "",
          "type": "address"
        }
      ],
      "stateMutability": "view",
      "type": "function"
    },
    {
      "inputs": [],
      "name": "renounceOwnership",
      "outputs": [],
      "stateMutability": "nonpayable",
      "type": "function"
    },
    {
      "inputs": [],
      "name": "royaltyFee",
      "outputs": [
        {
          "internalType": "uint256",
          "name": "",
          "type": "uint256"
        }
      ],
      "stateMutability": "view",
      "type": "function"
    },
    {
      "inputs": [
        {
          "internalType": "uint256",
          "name": "",
          "type": "uint256"
        },
        {
          "internalType": "uint256",
          "name": "salePrice",
          "type": "uint256"
        }
      ],
      "name": "royaltyInfo",
      "outputs": [
        {
          "internalType": "address",
          "name": "receiver",
          "type": "address"
        },
        {
          "internalType": "uint256",
          "name": "royaltyAmount",
          "type": "uint256"
        }
      ],
      "stateMutability": "view",
      "type": "function"
    },
    {
      "inputs": [],
      "name": "royaltyRecipient",
      "outputs": [
        {
          "internalType": "address",
          "name": "",
          "type": "address"
        }
      ],
      "stateMutability": "view",
      "type": "function"
    },
    {
      "inputs": [
        {
          "internalType": "address",
          "name": "_recipient",
          "type": "address"
        },
        {
          "internalType": "uint256",
          "name": "_fee",
          "type": "uint256"
        }
      ],
      "name": "setRoyaltyInfo",
      "outputs": [],
      "stateMutability": "nonpayable",
      "type": "function"
    },
    {
      "inputs": [
        {
          "internalType": "bytes4",
          "name": "interfaceId",
          "type": "bytes4"
        }
      ],
      "name": "supportsInterface",
      "outputs": [
        {
          "internalType": "bool",
          "name": "",
          "type": "bool"
        }
      ],
      "stateMutability": "pure",
      "type": "function"
    },
    {
      "inputs": [
        {
          "internalType": "address",
          "name": "newOwner",
          "type": "address"
        }
      ],
      "name": "transferOwnership",
      "outputs": [],
      "stateMutability": "nonpayable",
      "type": "function"
    },
    {
      "inputs": [],
      "name": "withdraw",
      "outputs": [],
      "stateMutability": "nonpayable",
      "type": "function"
    }
  ],
  "bytecode": "0x60806040523480156200001157600080fd5b5060405162003ce038038062003ce0833981810160405281019062000037919062000279565b80600073ffffffffffffffffffffffffffffffffffffffff168173ffffffffffffffffffffffffffffffffffffffff1603620000ad5760006040517f1e4fbdf7000000000000000000000000000000000000000000000000000000008152600401620000a49190620002e6565b60405180910390fd5b620000be816200011060201b60201c565b508260018190555081600260006101000a81548173ffffffffffffffffffffffffffffffffffffffff021916908373ffffffffffffffffffffffffffffffffffffffff16021790555050505062000303565b60008060009054906101000a900473ffffffffffffffffffffffffffffffffffffffff169050816000806101000a81548173ffffffffffffffffffffffffffffffffffffffff021916908373ffffffffffffffffffffffffffffffffffffffff1602179055508173ffffffffffffffffffffffffffffffffffffffff168173ffffffffffffffffffffffffffffffffffffffff167f8be0079c531659141344cd1fd0a4f28419497f9722a3daafe3b4186f6b6457e060405160405180910390a35050565b600080fd5b6000819050919050565b620001ee81620001d9565b8114620001fa57600080fd5b50565b6000815190506200020e81620001e3565b92915050565b600073ffffffffffffffffffffffffffffffffffffffff82169050919050565b6000620002418262000214565b9050919050565b620002538162000234565b81146200025f57600080fd5b50565b600081519050620002738162000248565b92915050565b600080600060608486031215620002955762000294620001d4565b5b6000620002a586828701620001fd565b9350506020620002b88682870162000262565b9250506040620002cb8682870162000262565b9150509250925092565b620002e08162000234565b82525050565b6000602082019050620002fd6000830184620002d5565b92915050565b6139cd80620003136000396000f3fe60806040523480156200001157600080fd5b5060043610620000c45760003560e01c8063715018a6116200007b578063715018a614620001d05780638da5cb5b14620001dc578063b8997a9714620001fe578063e2e784d51462000220578063e8072bd41462000240578063f2fde38b146200027657620000c4565b806301ffc9a714620000c95780632a55205a14620000ff578063327a08c914620001365780633ccfd60b146200016c5780634c00de821462000178578063634282af146200019a575b600080fd5b620000e76004803603810190620000e19190620009ea565b62000296565b604051620000f6919062000a39565b60405180910390f35b6200011d600480360381019062000117919062000a91565b62000369565b6040516200012d92919062000b2e565b60405180910390f35b6200015460048036038101906200014e919062000cee565b620003b9565b60405162000163919062000da9565b60405180910390f35b62000176620004d7565b005b62000182620005ec565b60405162000191919062000da9565b60405180910390f35b620001b86004803603810190620001b2919062000dc6565b62000612565b604051620001c7919062000da9565b60405180910390f35b620001da62000652565b005b620001e66200066a565b604051620001f5919062000da9565b60405180910390f35b6200020862000693565b60405162000217919062000df8565b60405180910390f35b6200023e600480360381019062000238919062000e15565b62000699565b005b6200025e600480360381019062000258919062000dc6565b62000737565b6040516200026d919062000da9565b60405180910390f35b6200029460048036038101906200028e919062000e5c565b62000782565b005b60007f2a55205a000000000000000000000000000000000000000000000000000000007bffffffffffffffffffffffffffffffffffffffffffffffffffffffff1916827bffffffffffffffffffffffffffffffffffffffffffffffffffffffff191614806200036257507f01ffc9a7000000000000000000000000000000000000000000000000000000007bffffffffffffffffffffffffffffffffffffffffffffffffffffffff1916827bffffffffffffffffffffffffffffffffffffffffffffffffffffffff1916145b9050919050565b600080600260009054906101000a900473ffffffffffffffffffffffffffffffffffffffff1661271060015485620003a2919062000ebd565b620003ae919062000f37565b915091509250929050565b6000620003c56200080f565b6000878787878787604051620003db906200096b565b620003ec9695949392919062000ff8565b604051809103906000f08015801562000409573d6000803e3d6000fd5b5090506003819080600181540180825580915050600190039060005260206000200160009091909190916101000a81548173ffffffffffffffffffffffffffffffffffffffff021916908373ffffffffffffffffffffffffffffffffffffffff1602179055503373ffffffffffffffffffffffffffffffffffffffff168173ffffffffffffffffffffffffffffffffffffffff167fd5f9bdf12adf29dab0248c349842c3822d53ae2bb4f36352f301630d018c813960405160405180910390a3809150509695505050505050565b620004e16200080f565b6000479050600081116200052c576040517f08c379a00000000000000000000000000000000000000000000000000000000081526004016200052390620010bc565b60405180910390fd5b6000620005386200066a565b73ffffffffffffffffffffffffffffffffffffffff16826040516200055d9062001113565b60006040518083038185875af1925050503d80600081146200059c576040519150601f19603f3d011682016040523d82523d6000602084013e620005a1565b606091505b5050905080620005e8576040517f08c379a0000000000000000000000000000000000000000000000000000000008152600401620005df906200117a565b60405180910390fd5b5050565b600260009054906101000a900473ffffffffffffffffffffffffffffffffffffffff1681565b600381815481106200062357600080fd5b906000526020600020016000915054906101000a900473ffffffffffffffffffffffffffffffffffffffff1681565b6200065c6200080f565b6200066860006200089f565b565b60008060009054906101000a900473ffffffffffffffffffffffffffffffffffffffff16905090565b60015481565b620006a36200080f565b612710811115620006eb576040517f08c379a0000000000000000000000000000000000000000000000000000000008152600401620006e290620011ec565b60405180910390fd5b81600260006101000a81548173ffffffffffffffffffffffffffffffffffffffff021916908373ffffffffffffffffffffffffffffffffffffffff160217905550806001819055505050565b60006003828154811062000750576200074f6200120e565b5b9060005260206000200160009054906101000a900473ffffffffffffffffffffffffffffffffffffffff169050919050565b6200078c6200080f565b600073ffffffffffffffffffffffffffffffffffffffff168173ffffffffffffffffffffffffffffffffffffffff1603620008015760006040517f1e4fbdf7000000000000000000000000000000000000000000000000000000008152600401620007f8919062000da9565b60405180910390fd5b6200080c816200089f565b50565b6200081962000963565b73ffffffffffffffffffffffffffffffffffffffff16620008396200066a565b73ffffffffffffffffffffffffffffffffffffffff16146200089d576200085f62000963565b6040517f118cdaa700000000000000000000000000000000000000000000000000000000815260040162000894919062000da9565b60405180910390fd5b565b60008060009054906101000a900473ffffffffffffffffffffffffffffffffffffffff169050816000806101000a81548173ffffffffffffffffffffffffffffffffffffffff021916908373ffffffffffffffffffffffffffffffffffffffff1602179055508173ffffffffffffffffffffffffffffffffffffffff168173ffffffffffffffffffffffffffffffffffffffff167f8be0079c531659141344cd1fd0a4f28419497f9722a3daafe3b4186f6b6457e060405160405180910390a35050565b600033905090565b61275a806200123e83390190565b6000604051905090565b600080fd5b600080fd5b60007fffffffff0000000000000000000000000000000000000000000000000000000082169050919050565b620009c4816200098d565b8114620009d057600080fd5b50565b600081359050620009e481620009b9565b92915050565b60006020828403121562000a035762000a0262000983565b5b600062000a1384828501620009d3565b91505092915050565b60008115159050919050565b62000a338162000a1c565b82525050565b600060208201905062000a50600083018462000a28565b92915050565b6000819050919050565b62000a6b8162000a56565b811462000a7757600080fd5b50565b60008135905062000a8b8162000a60565b92915050565b6000806040838503121562000aab5762000aaa62000983565b5b600062000abb8582860162000a7a565b925050602062000ace8582860162000a7a565b9150509250929050565b600073ffffffffffffffffffffffffffffffffffffffff82169050919050565b600062000b058262000ad8565b9050919050565b62000b178162000af8565b82525050565b62000b288162000a56565b82525050565b600060408201905062000b45600083018562000b0c565b62000b54602083018462000b1d565b9392505050565b62000b668162000af8565b811462000b7257600080fd5b50565b60008135905062000b868162000b5b565b92915050565b600080fd5b600080fd5b6000601f19601f8301169050919050565b7f4e487b7100000000000000000000000000000000000000000000000000000000600052604160045260246000fd5b62000be18262000b96565b810181811067ffffffffffffffff8211171562000c035762000c0262000ba7565b5b80604052505050565b600062000c1862000979565b905062000c26828262000bd6565b919050565b600067ffffffffffffffff82111562000c495762000c4862000ba7565b5b62000c548262000b96565b9050602081019050919050565b82818337600083830152505050565b600062000c8762000c818462000c2b565b62000c0c565b90508281526020810184848401111562000ca65762000ca562000b91565b5b62000cb384828562000c61565b509392505050565b600082601f83011262000cd35762000cd262000b8c565b5b813562000ce584826020860162000c70565b91505092915050565b60008060008060008060c0878903121562000d0e5762000d0d62000983565b5b600062000d1e89828a0162000a7a565b965050602062000d3189828a0162000b75565b955050604062000d4489828a0162000b75565b945050606087013567ffffffffffffffff81111562000d685762000d6762000988565b5b62000d7689828a0162000cbb565b935050608062000d8989828a0162000a7a565b92505060a062000d9c89828a0162000b75565b9150509295509295509295565b600060208201905062000dc0600083018462000b0c565b92915050565b60006020828403121562000ddf5762000dde62000983565b5b600062000def8482850162000a7a565b91505092915050565b600060208201905062000e0f600083018462000b1d565b92915050565b6000806040838503121562000e2f5762000e2e62000983565b5b600062000e3f8582860162000b75565b925050602062000e528582860162000a7a565b9150509250929050565b60006020828403121562000e755762000e7462000983565b5b600062000e858482850162000b75565b91505092915050565b7f4e487b7100000000000000000000000000000000000000000000000000000000600052601160045260246000fd5b600062000eca8262000a56565b915062000ed78362000a56565b925082820262000ee78162000a56565b9150828204841483151762000f015762000f0062000e8e565b5b5092915050565b7f4e487b7100000000000000000000000000000000000000000000000000000000600052601260045260246000fd5b600062000f448262000a56565b915062000f518362000a56565b92508262000f645762000f6362000f08565b5b828204905092915050565b600081519050919050565b600082825260208201905092915050565b60005b8381101562000fab57808201518184015260208101905062000f8e565b60008484015250505050565b600062000fc48262000f6f565b62000fd0818562000f7a565b935062000fe281856020860162000f8b565b62000fed8162000b96565b840191505092915050565b600060c0820190506200100f600083018962000b1d565b6200101e602083018862000b0c565b6200102d604083018762000b0c565b818103606083015262001041818662000fb7565b905062001052608083018562000b1d565b6200106160a083018462000b0c565b979650505050505050565b7f4e6f2066756e647320617661696c61626c650000000000000000000000000000600082015250565b6000620010a460128362000f7a565b9150620010b1826200106c565b602082019050919050565b60006020820190508181036000830152620010d78162001095565b9050919050565b600081905092915050565b50565b6000620010fb600083620010de565b91506200110882620010e9565b600082019050919050565b60006200112082620010ec565b9150819050919050565b7f5769746864726177206661696c65640000000000000000000000000000000000600082015250565b600062001162600f8362000f7a565b91506200116f826200112a565b602082019050919050565b60006020820190508181036000830152620011958162001153565b9050919050565b7f526f79616c74792066656520746f6f2068696768000000000000000000000000600082015250565b6000620011d460148362000f7a565b9150620011e1826200119c565b602082019050919050565b600060208201905081810360008301526200120781620011c5565b9050919050565b7f4e487b7100000000000000000000000000000000000000000000000000000000600052603260045260246000fdfe60806040523480156200001157600080fd5b506040516200275a3803806200275a833981810160405281019062000037919062000464565b83600073ffffffffffffffffffffffffffffffffffffffff168173ffffffffffffffffffffffffffffffffffffffff1603620000ad5760006040517f1e4fbdf7000000000000000000000000000000000000000000000000000000008152600401620000a4919062000530565b60405180910390fd5b620000be816200016d60201b60201c565b50856001819055508160028190555080600360006101000a81548173ffffffffffffffffffffffffffffffffffffffff021916908373ffffffffffffffffffffffffffffffffffffffff16021790555084600460006101000a81548173ffffffffffffffffffffffffffffffffffffffff021916908373ffffffffffffffffffffffffffffffffffffffff16021790555082600590816200016091906200078e565b5050505050505062000875565b60008060009054906101000a900473ffffffffffffffffffffffffffffffffffffffff169050816000806101000a81548173ffffffffffffffffffffffffffffffffffffffff021916908373ffffffffffffffffffffffffffffffffffffffff1602179055508173ffffffffffffffffffffffffffffffffffffffff168173ffffffffffffffffffffffffffffffffffffffff167f8be0079c531659141344cd1fd0a4f28419497f9722a3daafe3b4186f6b6457e060405160405180910390a35050565b6000604051905090565b600080fd5b600080fd5b6000819050919050565b6200025a8162000245565b81146200026657600080fd5b50565b6000815190506200027a816200024f565b92915050565b600073ffffffffffffffffffffffffffffffffffffffff82169050919050565b6000620002ad8262000280565b9050919050565b620002bf81620002a0565b8114620002cb57600080fd5b50565b600081519050620002df81620002b4565b92915050565b600080fd5b600080fd5b6000601f19601f8301169050919050565b7f4e487b7100000000000000000000000000000000000000000000000000000000600052604160045260246000fd5b6200033a82620002ef565b810181811067ffffffffffffffff821117156200035c576200035b62000300565b5b80604052505050565b60006200037162000231565b90506200037f82826200032f565b919050565b600067ffffffffffffffff821115620003a257620003a162000300565b5b620003ad82620002ef565b9050602081019050919050565b60005b83811015620003da578082015181840152602081019050620003bd565b60008484015250505050565b6000620003fd620003f78462000384565b62000365565b9050828152602081018484840111156200041c576200041b620002ea565b5b62000429848285620003ba565b509392505050565b600082601f830112620004495762000448620002e5565b5b81516200045b848260208601620003e6565b91505092915050565b60008060008060008060c087890312156200048457620004836200023b565b5b60006200049489828a0162000269565b9650506020620004a789828a01620002ce565b9550506040620004ba89828a01620002ce565b945050606087015167ffffffffffffffff811115620004de57620004dd62000240565b5b620004ec89828a0162000431565b9350506080620004ff89828a0162000269565b92505060a06200051289828a01620002ce565b9150509295509295509295565b6200052a81620002a0565b82525050565b60006020820190506200054760008301846200051f565b92915050565b600081519050919050565b7f4e487b7100000000000000000000000000000000000000000000000000000000600052602260045260246000fd5b60006002820490506001821680620005a057607f821691505b602082108103620005b657620005b562000558565b5b50919050565b60008190508160005260206000209050919050565b60006020601f8301049050919050565b600082821b905092915050565b600060088302620006207fffffffffffffffffffffffffffffffffffffffffffffffffffffffffffffffff82620005e1565b6200062c8683620005e1565b95508019841693508086168417925050509392505050565b6000819050919050565b60006200066f62000669620006638462000245565b62000644565b62000245565b9050919050565b6000819050919050565b6200068b836200064e565b620006a36200069a8262000676565b848454620005ee565b825550505050565b600090565b620006ba620006ab565b620006c781848462000680565b505050565b5b81811015620006ef57620006e3600082620006b0565b600181019050620006cd565b5050565b601f8211156200073e576200070881620005bc565b6200071384620005d1565b8101602085101562000723578190505b6200073b6200073285620005d1565b830182620006cc565b50505b505050565b600082821c905092915050565b6000620007636000198460080262000743565b1980831691505092915050565b60006200077e838362000750565b9150826002028217905092915050565b62000799826200054d565b67ffffffffffffffff811115620007b557620007b462000300565b5b620007c1825462000587565b620007ce828285620006f3565b600060209050601f831160018114620008065760008415620007f1578287015190505b620007fd858262000770565b8655506200086d565b601f1984166200081686620005bc565b60005b82811015620008405784890151825560018201915060208501945060208101905062000819565b868310156200086057848901516200085c601f89168262000750565b8355505b6001600288020188555050505b505050505050565b611ed580620008856000396000f3fe6080604052600436106101395760003560e01c80638291286c116100ab578063a51310851161006f578063a51310851461053b578063c9bf2e2914610564578063d33355531461058f578063e1489191146105b8578063e65d6b49146105e3578063f2fde38b1461060e57610280565b80638291286c146104665780638980f11f146104915780638da5cb5b146104ba578063931742d3146104e557806397c0262a1461051057610280565b80633aecd0e3116100fd5780633aecd0e3146103565780633c130d9014610393578063523fba7f146103be5780636aa00371146103fb578063715018a6146104265780637d60b6ce1461043d57610280565b806312065fe01461028557806317face84146102b057806323393def146102d9578063355e6b4314610304578063357291301461032d57610280565b366102805760003411610181576040517f08c379a00000000000000000000000000000000000000000000000000000000081526004016101789061164d565b60405180910390fd5b60006127106002543461019491906116a6565b61019e9190611717565b9050600081346101ae9190611748565b90506000600360009054906101000a900473ffffffffffffffffffffffffffffffffffffffff1673ffffffffffffffffffffffffffffffffffffffff16826040516101f8906117ad565b60006040518083038185875af1925050503d8060008114610235576040519150601f19603f3d011682016040523d82523d6000602084013e61023a565b606091505b505090508061027e576040517f08c379a00000000000000000000000000000000000000000000000000000000081526004016102759061180e565b60405180910390fd5b005b600080fd5b34801561029157600080fd5b5061029a610637565b6040516102a7919061183d565b60405180910390f35b3480156102bc57600080fd5b506102d760048036038101906102d29190611889565b61063f565b005b3480156102e557600080fd5b506102ee6107ae565b6040516102fb9190611935565b60405180910390f35b34801561031057600080fd5b5061032b60048036038101906103269190611889565b61083c565b005b34801561033957600080fd5b50610354600480360381019061034f91906119b5565b6108bb565b005b34801561036257600080fd5b5061037d600480360381019061037891906119f5565b610be8565b60405161038a919061183d565b60405180910390f35b34801561039f57600080fd5b506103a8610c31565b6040516103b59190611935565b60405180910390f35b3480156103ca57600080fd5b506103e560048036038101906103e091906119f5565b610cc3565b6040516103f2919061183d565b60405180910390f35b34801561040757600080fd5b50610410610cdb565b60405161041d9190611a31565b60405180910390f35b34801561043257600080fd5b5061043b610d01565b005b34801561044957600080fd5b50610464600480360381019061045f91906119f5565b610d15565b005b34801561047257600080fd5b5061047b610dce565b604051610488919061183d565b60405180910390f35b34801561049d57600080fd5b506104b860048036038101906104b391906119b5565b610dd4565b005b3480156104c657600080fd5b506104cf610f24565b6040516104dc9190611a31565b60405180910390f35b3480156104f157600080fd5b506104fa610f4d565b6040516105079190611a31565b60405180910390f35b34801561051c57600080fd5b50610525610f77565b6040516105329190611a31565b60405180910390f35b34801561054757600080fd5b50610562600480360381019061055d91906119b5565b610f9d565b005b34801561057057600080fd5b5061057961118c565b6040516105869190611a31565b60405180910390f35b34801561059b57600080fd5b506105b660048036038101906105b19190611889565b6111b6565b005b3480156105c457600080fd5b506105cd611264565b6040516105da919061183d565b60405180910390f35b3480156105ef57600080fd5b506105f861126a565b604051610605919061183d565b60405180910390f35b34801561061a57600080fd5b50610635600480360381019061063091906119f5565b611274565b005b600047905090565b610647610f24565b73ffffffffffffffffffffffffffffffffffffffff163373ffffffffffffffffffffffffffffffffffffffff16146106b4576040517f08c379a00000000000000000000000000000000000000000000000000000000081526004016106ab90611a98565b60405180910390fd5b478111156106f7576040517f08c379a00000000000000000000000000000000000000000000000000000000081526004016106ee90611b04565b60405180910390fd5b6000610701610f24565b73ffffffffffffffffffffffffffffffffffffffff1682604051610724906117ad565b60006040518083038185875af1925050503d8060008114610761576040519150601f19603f3d011682016040523d82523d6000602084013e610766565b606091505b50509050806107aa576040517f08c379a00000000000000000000000000000000000000000000000000000000081526004016107a190611b70565b60405180910390fd5b5050565b600580546107bb90611bbf565b80601f01602080910402602001604051908101604052809291908181526020018280546107e790611bbf565b80156108345780601f1061080957610100808354040283529160200191610834565b820191906000526020600020905b81548152906001019060200180831161081757829003601f168201915b505050505081565b610844610f24565b73ffffffffffffffffffffffffffffffffffffffff163373ffffffffffffffffffffffffffffffffffffffff16146108b1576040517f08c379a00000000000000000000000000000000000000000000000000000000081526004016108a890611a98565b60405180910390fd5b8060028190555050565b600081116108fe576040517f08c379a00000000000000000000000000000000000000000000000000000000081526004016108f590611c3c565b60405180910390fd5b600073ffffffffffffffffffffffffffffffffffffffff168273ffffffffffffffffffffffffffffffffffffffff160361096d576040517f08c379a000000000000000000000000000000000000000000000000000000000815260040161096490611ca8565b60405180910390fd5b600082905060008173ffffffffffffffffffffffffffffffffffffffff166370a08231306040518263ffffffff1660e01b81526004016109ad9190611a31565b602060405180830381865afa1580156109ca573d6000803e3d6000fd5b505050506040513d601f19601f820116820180604052508101906109ee9190611cdd565b9050610a1d3330858573ffffffffffffffffffffffffffffffffffffffff166112fa909392919063ffffffff16565b6000818373ffffffffffffffffffffffffffffffffffffffff166370a08231306040518263ffffffff1660e01b8152600401610a599190611a31565b602060405180830381865afa158015610a76573d6000803e3d6000fd5b505050506040513d601f19601f82011682018060405250810190610a9a9190611cdd565b610aa49190611748565b9050600061271060025483610ab991906116a6565b610ac39190611717565b905060008183610ad39190611748565b9050610b22600360009054906101000a900473ffffffffffffffffffffffffffffffffffffffff16828773ffffffffffffffffffffffffffffffffffffffff1661137c9092919063ffffffff16565b81600660008973ffffffffffffffffffffffffffffffffffffffff1673ffffffffffffffffffffffffffffffffffffffff1681526020019081526020016000206000828254610b719190611d0a565b925050819055503373ffffffffffffffffffffffffffffffffffffffff168773ffffffffffffffffffffffffffffffffffffffff167f46ba4e1e95fc9f44608739ffaee40c318f667c56e4ba6e3d0aa80b803768b9158585604051610bd7929190611d3e565b60405180910390a350505050505050565b6000600660008373ffffffffffffffffffffffffffffffffffffffff1673ffffffffffffffffffffffffffffffffffffffff168152602001908152602001600020549050919050565b606060058054610c4090611bbf565b80601f0160208091040260200160405190810160405280929190818152602001828054610c6c90611bbf565b8015610cb95780601f10610c8e57610100808354040283529160200191610cb9565b820191906000526020600020905b815481529060010190602001808311610c9c57829003601f168201915b5050505050905090565b60066020528060005260406000206000915090505481565b600460009054906101000a900473ffffffffffffffffffffffffffffffffffffffff1681565b610d096113fb565b610d136000611482565b565b610d1d610f24565b73ffffffffffffffffffffffffffffffffffffffff163373ffffffffffffffffffffffffffffffffffffffff1614610d8a576040517f08c379a0000000000000000000000000000000000000000000000000000000008152600401610d8190611a98565b60405180910390fd5b80600360006101000a81548173ffffffffffffffffffffffffffffffffffffffff021916908373ffffffffffffffffffffffffffffffffffffffff16021790555050565b60015481565b610ddc6113fb565b600082905060008173ffffffffffffffffffffffffffffffffffffffff166370a08231306040518263ffffffff1660e01b8152600401610e1c9190611a31565b602060405180830381865afa158015610e39573d6000803e3d6000fd5b505050506040513d601f19601f82011682018060405250810190610e5d9190611cdd565b9050600660008573ffffffffffffffffffffffffffffffffffffffff1673ffffffffffffffffffffffffffffffffffffffff1681526020019081526020016000205481610eaa9190611748565b831115610eec576040517f08c379a0000000000000000000000000000000000000000000000000000000008152600401610ee390611db3565b60405180910390fd5b610f1e610ef7610f24565b848473ffffffffffffffffffffffffffffffffffffffff1661137c9092919063ffffffff16565b50505050565b60008060009054906101000a900473ffffffffffffffffffffffffffffffffffffffff16905090565b6000600360009054906101000a900473ffffffffffffffffffffffffffffffffffffffff16905090565b600360009054906101000a900473ffffffffffffffffffffffffffffffffffffffff1681565b610fa5610f24565b73ffffffffffffffffffffffffffffffffffffffff163373ffffffffffffffffffffffffffffffffffffffff1614611012576040517f08c379a000000000000000000000000000000000000000000000000000000000815260040161100990611a98565b60405180910390fd5b600660008373ffffffffffffffffffffffffffffffffffffffff1673ffffffffffffffffffffffffffffffffffffffff16815260200190815260200160002054811115611094576040517f08c379a000000000000000000000000000000000000000000000000000000000815260040161108b90611e1f565b60405180910390fd5b80600660008473ffffffffffffffffffffffffffffffffffffffff1673ffffffffffffffffffffffffffffffffffffffff16815260200190815260200160002060008282546110e39190611748565b9250508190555061111c6110f5610f24565b828473ffffffffffffffffffffffffffffffffffffffff1661137c9092919063ffffffff16565b611124610f24565b73ffffffffffffffffffffffffffffffffffffffff168273ffffffffffffffffffffffffffffffffffffffff167f6337ed398c0e8467698c581374fdce4db14922df487b5a39483079f5f59b60a483604051611180919061183d565b60405180910390a35050565b6000600460009054906101000a900473ffffffffffffffffffffffffffffffffffffffff16905090565b6111be6113fb565b6111c6610637565b476111d19190611748565b811115611213576040517f08c379a000000000000000000000000000000000000000000000000000000000815260040161120a90611db3565b60405180910390fd5b61121b610f24565b73ffffffffffffffffffffffffffffffffffffffff166108fc829081150290604051600060405180830381858888f19350505050158015611260573d6000803e3d6000fd5b5050565b60025481565b6000600254905090565b61127c6113fb565b600073ffffffffffffffffffffffffffffffffffffffff168173ffffffffffffffffffffffffffffffffffffffff16036112ee5760006040517f1e4fbdf70000000000000000000000000000000000000000000000000000000081526004016112e59190611a31565b60405180910390fd5b6112f781611482565b50565b611376848573ffffffffffffffffffffffffffffffffffffffff166323b872dd86868660405160240161132f93929190611e3f565b604051602081830303815290604052915060e01b6020820180517bffffffffffffffffffffffffffffffffffffffffffffffffffffffff8381831617835250505050611546565b50505050565b6113f6838473ffffffffffffffffffffffffffffffffffffffff1663a9059cbb85856040516024016113af929190611e76565b604051602081830303815290604052915060e01b6020820180517bffffffffffffffffffffffffffffffffffffffffffffffffffffffff8381831617835250505050611546565b505050565b6114036115e8565b73ffffffffffffffffffffffffffffffffffffffff16611421610f24565b73ffffffffffffffffffffffffffffffffffffffff1614611480576114446115e8565b6040517f118cdaa70000000000000000000000000000000000000000000000000000000081526004016114779190611a31565b60405180910390fd5b565b60008060009054906101000a900473ffffffffffffffffffffffffffffffffffffffff169050816000806101000a81548173ffffffffffffffffffffffffffffffffffffffff021916908373ffffffffffffffffffffffffffffffffffffffff1602179055508173ffffffffffffffffffffffffffffffffffffffff168173ffffffffffffffffffffffffffffffffffffffff167f8be0079c531659141344cd1fd0a4f28419497f9722a3daafe3b4186f6b6457e060405160405180910390a35050565b600080602060008451602086016000885af180611569576040513d6000823e3d81fd5b3d9250600051915050600082146115845760018114156115a0565b60008473ffffffffffffffffffffffffffffffffffffffff163b145b156115e257836040517f5274afe70000000000000000000000000000000000000000000000000000000081526004016115d99190611a31565b60405180910390fd5b50505050565b600033905090565b600082825260208201905092915050565b7f4e6f204554482073656e74000000000000000000000000000000000000000000600082015250565b6000611637600b836115f0565b915061164282611601565b602082019050919050565b600060208201905081810360008301526116668161162a565b9050919050565b6000819050919050565b7f4e487b7100000000000000000000000000000000000000000000000000000000600052601160045260246000fd5b60006116b18261166d565b91506116bc8361166d565b92508282026116ca8161166d565b915082820484148315176116e1576116e0611677565b5b5092915050565b7f4e487b7100000000000000000000000000000000000000000000000000000000600052601260045260246000fd5b60006117228261166d565b915061172d8361166d565b92508261173d5761173c6116e8565b5b828204905092915050565b60006117538261166d565b915061175e8361166d565b925082820390508181111561177657611775611677565b5b92915050565b600081905092915050565b50565b600061179760008361177c565b91506117a282611787565b600082019050919050565b60006117b88261178a565b9150819050919050565b7f4f776e6572207472616e73666572206661696c65640000000000000000000000600082015250565b60006117f86015836115f0565b9150611803826117c2565b602082019050919050565b60006020820190508181036000830152611827816117eb565b9050919050565b6118378161166d565b82525050565b6000602082019050611852600083018461182e565b92915050565b600080fd5b6118668161166d565b811461187157600080fd5b50565b6000813590506118838161185d565b92915050565b60006020828403121561189f5761189e611858565b5b60006118ad84828501611874565b91505092915050565b600081519050919050565b60005b838110156118df5780820151818401526020810190506118c4565b60008484015250505050565b6000601f19601f8301169050919050565b6000611907826118b6565b61191181856115f0565b93506119218185602086016118c1565b61192a816118eb565b840191505092915050565b6000602082019050818103600083015261194f81846118fc565b905092915050565b600073ffffffffffffffffffffffffffffffffffffffff82169050919050565b600061198282611957565b9050919050565b61199281611977565b811461199d57600080fd5b50565b6000813590506119af81611989565b92915050565b600080604083850312156119cc576119cb611858565b5b60006119da858286016119a0565b92505060206119eb85828601611874565b9150509250929050565b600060208284031215611a0b57611a0a611858565b5b6000611a19848285016119a0565b91505092915050565b611a2b81611977565b82525050565b6000602082019050611a466000830184611a22565b92915050565b7f4e6f74206f776e65720000000000000000000000000000000000000000000000600082015250565b6000611a826009836115f0565b9150611a8d82611a4c565b602082019050919050565b60006020820190508181036000830152611ab181611a75565b9050919050565b7f496e73756666696369656e74204554482062616c616e63650000000000000000600082015250565b6000611aee6018836115f0565b9150611af982611ab8565b602082019050919050565b60006020820190508181036000830152611b1d81611ae1565b9050919050565b7f45544820636f6d6d697373696f6e207472616e73666572206661696c65640000600082015250565b6000611b5a601e836115f0565b9150611b6582611b24565b602082019050919050565b60006020820190508181036000830152611b8981611b4d565b9050919050565b7f4e487b7100000000000000000000000000000000000000000000000000000000600052602260045260246000fd5b60006002820490506001821680611bd757607f821691505b602082108103611bea57611be9611b90565b5b50919050565b7f4e6f20746f6b656e732073656e74000000000000000000000000000000000000600082015250565b6000611c26600e836115f0565b9150611c3182611bf0565b602082019050919050565b60006020820190508181036000830152611c5581611c19565b9050919050565b7f496e76616c696420746f6b656e20616464726573730000000000000000000000600082015250565b6000611c926015836115f0565b9150611c9d82611c5c565b602082019050919050565b60006020820190508181036000830152611cc181611c85565b9050919050565b600081519050611cd78161185d565b92915050565b600060208284031215611cf357611cf2611858565b5b6000611d0184828501611cc8565b91505092915050565b6000611d158261166d565b9150611d208361166d565b9250828201905080821115611d3857611d37611677565b5b92915050565b6000604082019050611d53600083018561182e565b611d60602083018461182e565b9392505050565b7f43616e6e6f7420776974686472617720636f6d6d697373696f6e2066756e6473600082015250565b6000611d9d6020836115f0565b9150611da882611d67565b602082019050919050565b60006020820190508181036000830152611dcc81611d90565b9050919050565b7f496e73756666696369656e7420746f6b656e2062616c616e6365000000000000600082015250565b6000611e09601a836115f0565b9150611e1482611dd3565b602082019050919050565b60006020820190508181036000830152611e3881611dfc565b9050919050565b6000606082019050611e546000830186611a22565b611e616020830185611a22565b611e6e604083018461182e565b949350505050565b6000604082019050611e8b6000830185611a22565b611e98602083018461182e565b939250505056fea26469706673582212200efb5434e917e1e4d8d1dc7db932e7fc60a976d60f745a3978519c87b821330e64736f6c63430008140033a26469706673582212208caa4208b7ba3e7623172d56f9779e318d1efa4e1b3ac37a75eedb5ab5f6620164736f6c63430008140033",
  "linkReferences": {},
  "deployedLinkReferences": {}
}